:1000000015C100000C946A870C949D870C94D087CE
:100010000C9403880C9436880C9469880C949C8802
:100020000C94CF8834C1000032C1000030C1000000
:100030002EC100002CC100002AC1000028C1000010
:1000400026C1000024C1000022C1000020C1000020
:100050001EC100001CC100001AC100000C940289DE
:1000600016C100000C94B6920C94E69210C10000E8
:100070000EC100000CC100000AC1000008C1000050
:1000800006C1000004C1000002C1000000C1000060
:100090000C945D930C948D93FAC000000C9405842D
:1000A000F6C00000F4C00000F2C00000F0C0000084
:1000B000EEC00000ECC00000EAC00000E8C0000094
:1000C000E6C00000E4C00000E2C000000C9404940C
:1000D0000C943494DCC000000C94AB940C94DB942E
:1000E000D6C0000005A84CCDB2D44EB93836A9020E
:1000F0000C50B9918688083CA6AAAA2ABE00000026
:10010000803F00002100240027002A002D0030003D
:10011000330001010000040107010A010000220070
:10012000250028002B002E003100340002010000C1
:10013000050108010B010000200023002600290012
:100140002C002F003200000100000301060109010C
:1001500005050505070508080808020202020A0A43
:100160000808040404040101010101010101030361
:10017000030303030303040707070C0C0C0C0C0C0C
:100180000C0C0202020206060606060606060B0B09
:100190000B0B0B0B0B0B010210202008081020404A
:1001A000102040800201020108040201010204083B
:1001B00010204080804020100804020180040201C9
:1001C0008040201008040201080402010102040812
:1001D00010204080010204081020408000000A0B1B
:1001E00002090C0D0E0807030401000000000000C6
:1001F00000000000000000000000000000000000FF
:1002000000000000000000001211100000000000BB
:1002100000000000000000000000000000000000DE
:100220000000207F5193F8939F94489511241FBE9E
:10023000CFEFD1E2DEBFCDBF00E00CBF13E0A0E006
:10024000B2E0EAE9FDE201E00BBF02C007900D92C7
:10025000A63DB107D9F72EE0A6EDB3E001C01D928F
:10026000AA34B207E1F711E0C6E1D1E000E006C030
:1002700021970109802FFE010E94DD95C131D10730
:1002800080E00807A9F70E940E780C94CB96B8CEB0
:10029000CF93DF93CDB7DEB76C970FB6F894DEBF80
:1002A0000FBECDBF898F6A8F5C8F4B8F1A821982E8
:1002B00080910204282F30E04BE0429FC001439F11
:1002C000900D11248A529C4F9C838B838B819C813F
:1002D000FC0110821182128213828B819C8121E0A9
:1002E000FC012287898D882F90E08A569E4F9E833D
:1002F0008D838D819E81FC0184918F838B819C8174
:100300002F81FC012683898D882F90E0805B9E4F92
:100310009987888788859985FC0184918A878A8551
:10032000882F90E0880F991F8A5C9E4F9C878B874F
:100330008B859C85FC0125913491CF013E872D87CB
:100340009C878B878D859E859C018B819C81FC0180
:10035000358324838A8D882F90E08A569E4F988B10
:100360008F878F859889FC018491898B8B819C81F3
:100370002989FC0121878A8D882F90E0805B9E4F20
:100380009B8B8A8B8A899B89FC0184918C8B8C89BD
:10039000882F90E0880F991F8A5C9E4F9E8B8D8BD3
:1003A0008D899E89FC0125913491CF01388F2F8B47
:1003B0009E8B8D8B8F89988D9C018B819C81FC01FC
:1003C0003087278360E0898D0E948F8C60E08A8D62
:1003D0000E948F8C80910204882F90E081309105DB
:1003E00009F449C0823091051CF4892B49F0F4C00E
:1003F0008230910509F47AC0039709F4B2C0ECC0C9
:10040000898D823099F0898D833071F0898D8231A8
:1004100048F0898D863130F497E1898DF92FF81BEA
:100420008F2F05C08FEF03C081E001C080E041E065
:1004300050E06BE573E00E944B868A8D823099F024
:100440008A8D833071F08A8D823148F08A8D8631B1
:1004500030F497E18A8D292F281B822F05C08FEF5A
:1004600003C081E001C080E041E050E066E673E057
:100470000E944B86B1C0898D823099F0898D83307E
:1004800071F0898D823148F0898D863130F497E1A1
:10049000898DE92FE81B8E2F05C08FEF03C081E007
:1004A00001C080E041E050E061E773E00E944B86CC
:1004B0008A8D823099F08A8D833071F08A8D8231F5
:1004C00048F08A8D863130F497E18A8DF92FF81B38
:1004D0008F2F05C08FEF03C081E001C080E041E0B5
:1004E00050E06CE773E00E944B8676C0898D8230C5
:1004F00099F0898D833071F0898D823148F0898D32
:10050000863130F497E1898D292F281B822F05C071
:100510008FEF03C081E001C080E041E050E067E878
:1005200073E00E944B868A8D823099F08A8D8330E9
:1005300071F08A8D823148F08A8D863130F497E1EE
:100540008A8DE92FE81B8E2F05C08FEF03C081E055
:1005500001C080E041E050E062E973E00E944B8618
:100560003BC0898D823099F0898D833071F0898DFF
:10057000823148F0898D863130F497E1898DF92FE9
:10058000F81B8F2F05C08FEF03C081E001C080E012
:1005900041E050E06DE973E00E944B868A8D823025
:1005A00099F08A8D833071F08A8D823148F08A8D7E
:1005B000863130F497E18A8D292F281B822F05C0C0
:1005C0008FEF03C081E001C080E041E050E068EAC5
:1005D00073E00E944B8600002091020481E0820FAC
:1005E000809302048B8D9C8DFC01208389819A81EC
:1005F0006C960FB6F894DEBF0FBECDBFDF91CF91E2
:100600000895CF93DF9300D01F921F92CDB7DEB72E
:100610008B837D836C838B81282F30E04BE0429F5E
:10062000C001439F900D11248A529C4F9A83898365
:1006300089819A81FC0180819181A281B3812C8181
:100640003D81F90180839183A283B38380E090E0B0
:100650000F900F900F900F900F90DF91CF91089512
:10066000CF93DF9300D0CDB7DEB78B838B81282F5C
:1006700030E04BE0429FC001439F900D11248A520D
:100680009C4F9A83898389819A81FC01108211820F
:100690001282138280E090E00F900F900F90DF9114
:1006A000CF910895CF93DF93CDB7DEB780E090E090
:1006B000DF91CF910895CF93DF93CDB7DEB786ED6D
:1006C00093E051D00000DF91CF910895CF93DF9355
:1006D000CDB7DEB786ED93E0D5D00000DF91CF91A6
:1006E0000895CF93DF93CDB7DEB781EE93E03BD093
:1006F0000000DF91CF910895CF93DF93CDB7DEB7A0
:1007000081EE93E0BFD00000DF91CF910895CF93A9
:10071000DF93CDB7DEB78CEE93E025D00000DF91FC
:10072000CF910895CF93DF93CDB7DEB78CEE93E0F2
:10073000A9D00000DF91CF910895CF93DF93CDB77B
:10074000DEB787EF93E00FD00000DF91CF910895DF
:10075000CF93DF93CDB7DEB787EF93E093D0000060
:10076000DF91CF910895CF93DF9300D000D0CDB724
:10077000DEB79E838D838D819E81FC01878190856C
:10078000FC0120818D819E81FC018185922F98231F
:1007900081E0992309F480E0882F90E09A8389838F
:1007A0008D819E81FC0184819581FC0120818D8158
:1007B0009E81FC018681922F982381E0992309F480
:1007C00080E0882F90E09C838B838B819C810197B4
:1007D00041F589819A81892B91F48D819E81FC015B
:1007E00080819181A281B3810196A11DB11D2D81CE
:1007F0003E81F90180839183A283B38339C08D81C7
:100800009E81FC0180819181A281B3810197A10920
:10081000B1092D813E81F90180839183A283B38345
:1008200027C089819A81019791F48D819E81FC0175
:1008300080819181A281B3810196A11DB11D2D817D
:100840003E81F90180839183A283B38311C08D819E
:100850009E81FC0180819181A281B3810197A109D0
:10086000B1092D813E81F90180839183A283B383F5
:10087000000026960FB6F894DEBF0FBECDBFDF9105
:10088000CF910895CF93DF9300D000D0CDB7DEB7DE
:100890009E838D838D819E81FC0184819581FC01E5
:1008A00020818D819E81FC018681922F982381E099
:1008B000992309F480E0882F90E09A8389838D81C1
:1008C0009E81FC0187819085FC0120818D819E8124
:1008D000FC018185922F982381E0992309F480E01F
:1008E000882F90E09C838B838B819C81019741F5BD
:1008F00089819A81019791F48D819E81FC0180818B
:100900009181A281B3810196A11DB11D2D813E81EE
:10091000F90180839183A283B38339C08D819E8145
:10092000FC0180819181A281B3810197A109B10964
:100930002D813E81F90180839183A283B38327C0F7
:1009400089819A81892B91F48D819E81FC0180811E
:100950009181A281B3810196A11DB11D2D813E819E
:10096000F90180839183A283B38311C08D819E811D
:10097000FC0180819181A281B3810197A109B10914
:100980002D813E81F90180839183A283B38300008E
:1009900026960FB6F894DEBF0FBECDBFDF91CF9184
:1009A0000895CF93DF931F921F92CDB7DEB789834F
:1009B0006A838A81882329F460E089810E948F8C70
:1009C0000CC08A81813029F461E089810E948F8C7A
:1009D00004C062E089810E948F8C00000F900F900C
:1009E000DF91CF910895CF93DF931F921F92CDB7E0
:1009F000DEB789836A838A81882329F061E089814F
:100A00000E942E8E04C060E089810E942E8E00001C
:100A10000F900F90DF91CF910895EF92FF920F9377
:100A20001F93CF93DF93CDB7DEB72C970FB6F89413
:100A3000DEBF0FBECDBF69837A838B839C832D83FA
:100A40003E834F835887E986FA860B871C87898106
:100A500061E00E948F8C89819A8101969C01898135
:100A60009A81AB81BC81A901BC01CD01F8D020E005
:100A700030E0A90169857A858B859C850E94127B6F
:100A80001816BCF469857A858B859C850E94BD7992
:100A9000DC01CB018C016D817E818F8198850E9464
:100AA000BD79DC01CB019C0189819A81A801B90142
:100AB00055D189819A8101962C960FB6F894DEBFA4
:100AC0000FBECDBFDF91CF911F910F91FF90EF909F
:100AD0000895CF93DF9300D000D01F92CDB7DEB73B
:100AE0009B838A834C835D836E837F83CE010296D2
:100AF000FC0180818823B9F1CE010296FC0180813E
:100B00008150898320E030E0A9016C817D818E8154
:100B10009F810E9449798823D4F48C819D81AE8184
:100B2000BF81B0588C839D83AE83BF836C817D81F0
:100B30008E819F810E94BD799B01AC018981882FA4
:100B400090E0A0E0B0E0BC01CD01E7D00CC06C812A
:100B50007D818E819F810E94B879DC01CB01BC012F
:100B600089810E94158B000027960FB6F894DEBF8E
:100B70000FBECDBFDF91CF910895CF93DF9300D00B
:100B8000CDB7DEB79B838A83CE010296FC018081BC
:100B9000882389F01982CE010296FC018081815060
:100BA00089838981882F90E0A0E0B0E040E050E0A8
:100BB000BC01CD0154D000000F900F900F90DF9139
:100BC000CF910895CF93DF9300D000D000D0CDB760
:100BD000DEB76E837F83888799871C821B821A8287
:100BE00019821D828E819F81A885B985689412F82B
:100BF000B695A795979587951694D1F79C838B8387
:100C00008E8187708D838B819C818D5F9B4FFC01D2
:100C100040818D81282F30E081E090E002C0880F74
:100C2000991F2A95E2F78423882F90E09A8389837D
:100C300089819A81892B31F08E819F8101969A83D7
:100C4000898302C01A82198289819A8129960FB6F6
:100C5000F894DEBF0FBECDBFDF91CF910895CF9343
:100C6000DF9300D000D000D01F92CDB7DEB76D83E8
:100C70007E838F8398875A8749871A8219821B82BD
:100C80001C828D819E81AF81B885689412F8B695DB
:100C9000A795979587951694D1F79A8389838D8127
:100CA00087708B838B81282F30E081E090E002C039
:100CB000880F991F2A95E2F78C8389859A85892B5D
:100CC00099F48C8180958C8389819A818D5F9B4F6B
:100CD000FC0190818C81292F282389819A818D5F45
:100CE0009B4FFC0120830FC089819A818D5F9B4FB0
:100CF000FC0190818C81292F282B89819A818D5F1D
:100D00009B4FFC01208300002A960FB6F894DEBFAB
:100D10000FBECDBFDF91CF910895CF93DF9300D069
:100D200000D01F921F92CDB7DEB769837A838B8381
:100D30009C832D833E834F8358878D819E8129819B
:100D4000BC01822F0E94158B000028960FB6F894E4
:100D5000DEBF0FBECDBFDF91CF910895CF93DF935C
:100D600000D000D000D0CDB7DEB79D838C837F83C9
:100D70006E83598748878C819D8184529E4F9A83C8
:100D8000898389819A81FC0184918B838B81882F4F
:100D900090E0092E000CAA0BBB0B0197A109B10929
:100DA00082319105A105B10508F051C2FC018827E7
:100DB000E352F94F8F4F0C94DD95EF06F9060307C8
:100DC0002D075707270981079707AD07D7070108A0
:100DD0002B0855087F082709A908D308FD0884E4D3
:100DE00090E0FC01208184E490E02068FC012083F5
:100DF0002EC284E490E0FC01208184E490E0206233
:100E0000FC01208324C280E890E0FC018081282F2F
:100E10002C7F80E890E02260FC01208381E890E054
:100E2000FC018081982F907E8E81292F282B81E8CC
:100E300090E02061FC01208386E890E028853985D8
:100E4000FC013183208380E890E0FC01208180E870
:100E500090E02068FC012083FAC180E890E0FC016A
:100E60008081282F2C7F80E890E02260FC01208385
:100E700081E890E0FC018081982F907E8E81292F5F
:100E8000282B81E890E02061FC01208386E890E037
:100E900028853985FC013183208380E890E0FC01BE
:100EA000208180E890E02062FC012083D0C180E8AE
:100EB00090E0FC018081282F2C7F80E890E0226068
:100EC000FC01208381E890E0FC018081982F907ED6
:100ED0008E81292F282B81E890E02061FC0120835E
:100EE00086E890E028853985FC013183208380E8FD
:100EF00090E0FC01208180E890E02860FC012083E4
:100F0000A6C180EB90E0FC01208180EB90E020689E
:100F1000FC01208381EB90E0FC018081382F387F39
:100F20002E8181EB90E0232BFC01208390C180EB8C
:100F300090E0FC01208180EB90E02062FC012083A6
:100F400081EB90E0FC018081382F387F2E8181EB8E
:100F500090E0232BFC0120837AC180E990E0FC0122
:100F60008081282F2C7F80E990E02260FC01208383
:100F700081E990E0FC018081982F907E8E81292F5D
:100F8000282B81E990E02061FC01208386E990E034
:100F900028853985FC013183208380E990E0FC01BC
:100FA000208180E990E02068FC01208350C180E925
:100FB00090E0FC018081282F2C7F80E990E0226066
:100FC000FC01208381E990E0FC018081982F907ED4
:100FD0008E81292F282B81E990E02061FC0120835C
:100FE00086E990E028853985FC013183208380E9FA
:100FF00090E0FC01208180E990E02062FC012083E8
:1010000026C180E990E0FC018081282F2C7F80E9B7
:1010100090E02260FC01208381E990E0FC01808166
:10102000982F907E8E81292F282B81E990E02061D6
:10103000FC01208386E990E028853985FC01318315
:10104000208380E990E0FC01208180E990E0286025
:10105000FC012083FCC080EA90E0FC018081282F05
:101060002C7F80EA90E02260FC01208381EA90E0FE
:10107000FC018081982F907E8E81292F282B81EA78
:1010800090E02061FC01208386EA90E02885398584
:10109000FC013183208380EA90E0FC01208180EA1A
:1010A00090E02068FC012083D2C080EA90E0FC013F
:1010B0008081282F2C7F80EA90E02260FC01208331
:1010C00081EA90E0FC018081982F907E8E81292F0B
:1010D000282B81EA90E02061FC01208386EA90E0E1
:1010E00028853985FC013183208380EA90E0FC016A
:1010F000208180EA90E02062FC012083A8C080EA81
:1011000090E0FC018081282F2C7F80EA90E0226013
:10111000FC01208381EA90E0FC018081982F907E81
:101120008E81292F282B81EA90E02061FC01208309
:1011300086EA90E028853985FC013183208380EAA6
:1011400090E0FC01208180EA90E02860FC0120838F
:101150007EC080E291E0FC018081282F2C7F80E21C
:1011600091E02260FC01208381E291E0FC0180811A
:10117000982F907E8E81292F282B81E291E020618B
:10118000FC01208386E291E028853985FC013183CA
:10119000208380E291E0FC01208180E291E02068E0
:1011A000FC01208354C080E291E0FC018081282F63
:1011B0002C7F80E291E02260FC01208381E291E0BB
:1011C000FC018081982F907E8E81292F282B81E22F
:1011D00091E02061FC01208386E291E02885398539
:1011E000FC013183208380E291E0FC01208180E2D8
:1011F00091E02062FC0120832AC080E291E0FC01A2
:101200008081282F2C7F80E291E02260FC012083E6
:1012100081E291E0FC018081982F907E8E81292FC0
:10122000282B81E291E02061FC01208386E291E09D
:1012300028853985FC013183208380E291E0FC011F
:10124000208180E291E02860FC01208300008C81F5
:1012500060E00E942E8E000029960FB6F894DEBF43
:101260000FBECDBFDF91CF910895CF93DF9300D014
:1012700000D0CDB7DEB769837A838B839C835E838E
:101280004D8389819A81AB81BC81892B8A2B8B2BE1
:1012900021F589819A81880F991F880F991F8050A5
:1012A0009E4FFC0180818823C1F489819A81880F37
:1012B000991F880F991F8E5F9D4FFC01808191813E
:1012C0000E947E7C89819A81880F991F880F991FBF
:1012D00080509E4F21E0FC01208389819A81880FF4
:1012E000991F880F991F80509E4F26960FB6F8942D
:1012F000DEBF0FBECDBFDF91CF910895CF93DF93B7
:1013000000D000D0CDB7DEB79A8389834B835C834E
:101310006D837E8389819A81892BF9F089819A81F5
:10132000FC018181882341F480EA96E8A1E0B0E0E5
:101330008B839C83AD83BE8389819A81FC0122814A
:1013400033818B819C81AD81BE81AC01BD01C9011E
:101350000E949B7C80E090E002C088E090E02696AE
:101360000FB6F894DEBF0FBECDBFDF91CF910895C9
:10137000CF92EF920F931F93CF93DF93CDB7DEB74A
:1013800062970FB6F894DEBF0FBECDBF98878F83EC
:101390007A8769875C874B870D871E872F87388BF5
:1013A000E98ACA8A8F819885892B09F49DC08F812B
:1013B0009885FC01828193813D852985432F622F89
:1013C0000E94527D19821A821B821C828F8198850D
:1013D000FC01428153818F819885FC018281938138
:1013E000FC01808191810896FC0120813181CA0134
:1013F000F901199521E0892B09F420E0222309F451
:1014000065C08F819885FC01428153818F819885C9
:10141000FC0182819381FC01808191810896FC010D
:1014200020813181CA01F9011995892B79F029812F
:101430003A814B815C818D859E85AF85B88928175F
:1014400039074A075B0710F481E001C080E0882378
:1014500009F447C08F819885FC01428153818F81B7
:101460009885FC0182819381FC01808191810A969B
:10147000FC0120813181CA01F90119959E838D8378
:101480008D819E81019659F48B859C8544E050E0C6
:1014900060E070E00E94C49688E090E027C08981F7
:1014A0009A81AB81BC819C01AD012F5F3F4F4F4FB3
:1014B0005F4F29833A834B835C839C018B859C859A
:1014C000820F931F2D81FC0120839BCF8B859C85F0
:1014D00044E050E060E070E00E94C49688E090E054
:1014E00005C080E090E002C088E090E062960FB610
:1014F000F894DEBF0FBECDBFDF91CF911F910F914A
:10150000EF90CF900895CF92EF920F931F93CF93C8
:10151000DF93CDB7DEB72D970FB6F894DEBF0FBEC1
:10152000CDBF9B838A837D836C835F834E830887D3
:1015300019872A873B87EC86CD868A819B81892BF8
:1015400009F44FC019828A819B81DC0112968D912A
:101550009C912C81622F0E94697D8A819B81DC0194
:101560001296ED91FC918A819B81DC0112968D91FE
:101570009C91DC018D919C910296DC012D913C9116
:10158000488559858E819F81BC01CF01F90119954C
:101590008C85882359F08A819B81DC0112968D917C
:1015A0009C9160E00E94827D898309C08A819B8131
:1015B000FC018281938161E00E94827D898389811F
:1015C000882319F480E090E00EC08981823019F000
:1015D0008981833019F484E090E005C088E090E0D0
:1015E00002C088E090E02D960FB6F894DEBF0FBEE3
:1015F000CDBFDF91CF911F910F91EF90CF900895C4
:10160000CF93DF931F921F92CDB7DEB79A83898362
:1016100000000F900F90DF91CF910895CF93DF934B
:1016200000D000D0CDB7DEB79C838B837E836D83E3
:101630001A82198289819A8126960FB6F894DEBFA4
:101640000FBECDBFDF91CF910895CF93DF9300D030
:1016500000D01F921F92CDB7DEB79E838D8378870F
:101660006F831C821B828D819E81892B19F48FEFE1
:101670009FEFB2C08F819885892B19F48FEF9FEF70
:10168000ABC08091A0029091A102A091A202B09162
:10169000A3028E3F9F4FAF4FBF4F61F48FEF9FEF7D
:1016A000DC018093A0029093A102A093A202B093C8
:1016B000A3020FC08091A0029091A102A091A2026A
:1016C000B091A3022F813885F90180839183A28391
:1016D000B3838091A0029091A102A091A202B09147
:1016E000A3028D819E81FC0182819381FC01808116
:1016F0009181A281B3818093640590936505A09345
:101700006605B09367058D819E81FC01828193817E
:10171000FC0184819581A681B781809368059093AF
:101720006905A0936A05B0936B058D819E81FC01CC
:1017300082819381FC0180859185A285B385809308
:101740006C0590936D05A0936E05B0936F058D8128
:101750009E81FC0182819381FC0184859585A6850B
:10176000B7858093700590937105A0937205B0932F
:1017700073051092740510927505109276051092FB
:1017800077050E944E3B1A8219821A82198210C074
:1017900089819A81880F991F845F9B4F29E73BE3DA
:1017A000FC013183208389819A8101969A83898300
:1017B00089819A81029760F30E9455369C838B83BE
:1017C0008B819C81892B31F481E090E090936305BB
:1017D000809362058B819C8128960FB6F894DEBFBA
:1017E0000FBECDBFDF91CF910895CF93DF93CDB7DB
:1017F000DEB72C970FB6F894DEBF0FBECDBF69875A
:101800007A878B879C871A8219821B821C821D8291
:101810001E821F829091600581E0992309F080E08B
:10182000888782E090E090936305809362058985C4
:101830009A85AB85BC85892B8A2B8B2B59F480919B
:101840006005882339F480916105882319F481E0CB
:1018500090E002C080E090E08F8331C06AE070E0E9
:1018600080E090E00E94D1898B819C81AD81BE8116
:10187000805F984DAF4FBF4F8B839C83AD83BE83FA
:1018800089859A85AB85BC858F3F9F4FAF4FBF4FF2
:1018900081F02B813C814D815E8189859A85AB8564
:1018A000BC8582179307A407B50718F481E090E080
:1018B00002C080E090E08F8380E00E949D3680919E
:1018C0006005882339F480916105882319F48F819C
:1018D000882321F283E090E0909363058093620572
:1018E0008F81882321F08CE99FEF9A8389838885F3
:1018F000882311F00E94753C89819A812C960FB63D
:10190000F894DEBF0FBECDBFDF91CF910895CF9386
:10191000DF93CDB7DEB761970FB6F894DEBF0FBE89
:10192000CDBF9D878C874E875F87688B798B1A82A6
:10193000198281E08B838C859D858F3F910521F0F5
:1019400018F08FEF9FEF63C080916205909163055F
:10195000039731F08091620590916305019731F40E
:1019600084E090E090936305809362058C859D856B
:10197000029708F58C859D85880F991F845F9B4F82
:10198000FC0180819181892BB1F00E942F419D83C0
:101990008C838C819D81029771F48C859D85880F45
:1019A000991F845F9B4FFC01208131818C859D852F
:1019B000F90119958B838C859D859F838E832C855A
:1019C0003D858E859F85A889B989A901BC01CD0176
:1019D0000E943236DC01CB0188879987AA87BB87B2
:1019E0008B81882371F088859985AA85BB852E8196
:1019F0003F81AC01BD01C9010E94FF409A838983E8
:101A000004C08E819F810E94714189819A81619673
:101A10000FB6F894DEBF0FBECDBFDF91CF91089512
:101A2000CF93DF931F921F92CDB7DEB71A82198230
:101A300080E00E949D369A83898389819A810F90E4
:101A40000F90DF91CF910895CF93DF931F921F9254
:101A5000CDB7DEB71A82198286E090E090936305D5
:101A6000809362050E942D379A83898344E050E079
:101A700060E070E08CE094E00E94C4960E94073C15
:101A8000109263051092620589819A810F900F90E0
:101A9000DF91CF910895CF93DF93CDB7DEB78091DB
:101AA0006105DF91CF910895CF93DF93CDB7DEB776
:101AB00080917805DF91CF910895CF93DF9300D087
:101AC0001F92CDB7DEB769837A838B839C8389812C
:101AD0009A81AB81BC818093A0029093A102A093D4
:101AE000A202B093A30280E090E00F900F900F90BD
:101AF0000F90DF91CF9108952F923F924F925F9276
:101B00006F927F928F929F92AF92BF92CF92DF920D
:101B1000EF92FF920F931F93CF93DF93CDB7DEB772
:101B20006E970FB6F894DEBF0FBECDBF9A8F898F28
:101B30007C8F6B8F5E8F4D8F19821A821B821C8265
:101B40008D8D9E8D9E878D878B8D9C8D8150904E27
:101B5000880F991F880F991F880F991F298D3A8D1B
:101B6000F901E80FF91F208131814281538164819D
:101B7000758186819781A22EB32EC42ED52EE62E96
:101B8000F72E082F192F2A2D3B2D4C2D5D2D6E2D54
:101B90007F2D802F912FA0E00E949C960CF0C6C054
:101BA00081E08D831E821F82188619861A861B8605
:101BB0001C86188A1F86B1C08F859889880F991F47
:101BC000880F991F880F991F298D3A8DF901E80F09
:101BD000F91F208131814281538164817581868121
:101BE0009781E22FE095E98BE32FE095EA8BE42FD4
:101BF000E095EB8BE52FE095EC8BE62FE095ED8BF8
:101C0000E72FE095EE8BE82FE095EF8B892F8095FD
:101C1000888F2D813E814F81588569857A858B8596
:101C20009C85A988BA88CB88DC88ED88FE880F89D6
:101C3000188D0E947596A22EB32EC42ED52EE62E98
:101C4000F72E082F192FAD82BE82CF82D886E98663
:101C5000FA860B871C872D813E814F8158856985C7
:101C60007A858B859C850E94267A8B019C018D85C7
:101C70009E85AC01C901B8010E94187BDC01CB0133
:101C80009C01AD0169817A818B819C810E94E478FD
:101C9000DC01CB0189839A83AB83BC83E1E0AD8017
:101CA000BE80CF80D884E984FA840B851C8529887E
:101CB0003A884B885C886D887E888F88988C2A2D1E
:101CC0003B2D4C2D5D2D6E2D7F2D802F912FA22C25
:101CD000B32CC42CD52CE62CF72C082D192D0E94E2
:101CE000939608F0E0E02E2F30E040E050E060E016
:101CF00070E0CB012D833E834F83588769877A87B5
:101D00008B879C878D859E85805C9F4F9E878D8766
:101D10008F8598890196988B8F872F8538898B8D31
:101D20009C8D281739070CF447CF55C0188A1F8699
:101D30004AC08F859889880F991F880F991F880F2F
:101D4000991F298D3A8D820F931FFC01A080FC0101
:101D5000B180FC01C280FC01D380FC01E480FC0165
:101D6000F580FC010681FC0117812A2D3B2D4C2DAD
:101D70005D2D6E2D7F2D802F912F0E94267A8B0155
:101D80009C018D859E85AC01C901B8010E94187B1C
:101D9000DC01CB019C01AD0169817A818B819C8141
:101DA0000E94E578DC01CB0189839A83AB83BC83F5
:101DB0008D859E85805C9F4F9E878D878F859889B6
:101DC0000196988B8F872F8538898B8D9C8D28174E
:101DD00039070CF4AECF89819A81AB81BC81BC01FB
:101DE000CD016E960FB6F894DEBF0FBECDBFDF916A
:101DF000CF911F910F91FF90EF90DF90CF90BF9008
:101E0000AF909F908F907F906F905F904F903F909A
:101E10002F9008952F923F924F925F926F927F92F0
:101E20008F929F92AF92BF92CF92DF92EF92FF92EA
:101E30000F931F93CF93DF93CDB7DEB7C656D1096B
:101E40000FB6F894DEBF0FBECDBFFE01E55AFF4FBF
:101E500091838083CE01835A9F4FFC0171836083FD
:101E6000CE01815A9F4FFC0151834083CE018F598F
:101E70009F4FFC0131832083CE018D599F4FFC0180
:101E800011830083CE018B599F4FFC01F182E082C8
:101E9000CE01835A9F4FFC01808191818150904EE9
:101EA000880F991F880F991F880F991F9E01255A27
:101EB0003F4FF90120813181F901E80FF91F20819D
:101EC0003181428153816481758186819781A22EFF
:101ED000B32EC42ED52EE62EF72E082F192F2A2D1D
:101EE0003B2D4C2D5D2D6E2D7F2D802F912F0FE3DF
:101EF0000E945A96A22EB32EC42ED52EE62EF72E71
:101F0000082F192F8A2D8FA3CE018F599F4FFC01C7
:101F1000808191818150904E880F991F880F991F61
:101F2000880F991F9E01215A3F4FF901208131816D
:101F3000F901E80FF91F20813181428153816481C9
:101F4000758186819781A22EB32EC42ED52EE62EC2
:101F5000F72E082F192F2A2D3B2D4C2D5D2D6E2D80
:101F60007F2D802F912F0FE30E945A96A22EB32E21
:101F7000C42ED52EE62EF72E082F192F8A2D88A7CE
:101F800081E089871A861B861C861D861E861F8611
:101F9000188A1EA21DA225C08DA19EA1880F991F7F
:101FA000880F991F880F991F9E012D593F4FF901E6
:101FB00020813181820F931FFC011082FC0111826C
:101FC000FC011282FC011382FC011482FC011582C7
:101FD000FC011682FC0117828DA19EA101969EA391
:101FE0008DA3CE018B599F4F2DA13EA1FC01808175
:101FF00091812817390784F21AA219A28FC5198274
:102000001A821B821C821D821E821F82188689A151
:102010009AA1880F991F880F991F880F991F9E01F9
:10202000255A3F4FF90120813181820F931FFC0116
:102030002081298FFC0121812A8FFC0122812B8F95
:10204000FC0123812C8FFC0124812D8FFC01258133
:102050002E8FFC0126812F8FFC01878188A38FA101
:10206000882309F461C029853A854B855C856D8597
:102070007E858F859889A98CBA8CCB8CDC8CED8C75
:10208000FE8C0F8D18A10E948A96A22EB32EC42E0C
:10209000D52EE62EF72E082F192F2A2D3B2D4C2D4D
:1020A0005D2D6E2D7F2D802F912FAFEF0E947E969C
:1020B000298F3A8F4B8F5C8F6D8F7E8F8F8F98A378
:1020C000E1E0A98CBA8CCB8CDC8CED8CFE8C0F8D76
:1020D00018A129843A844B845C846D847E848F8427
:1020E00098882A2D3B2D4C2D5D2D6E2D7F2D802F18
:1020F000912FA22CB32CC42CD52CE62CF72C082D18
:10210000192D0E94939608F0E0E02E2F30E040E079
:1021100050E060E070E0CB0129873A874B875C870D
:102120006D877E878F87988B298D3A8D4B8D5C8D3F
:102130006D8D7E8D8F8D98A100E20E945A96A22E01
:10214000B32EC42ED52EE62EF72E082F192FA9AAAE
:10215000BAAACBAADCAAEDAAFEAA0FAB18AF898D4A
:102160008F7F89AF8A8D8F7F8AAF8B8D8F7F8BAF6B
:102170008C8D8F7F8CAF8D8D80708DAF8E8D8070AC
:102180008EAF8F8D80708FAF88A1282F2070CE01E9
:10219000805C9F4FFC01208381E0898B1A8A1B8A17
:1021A0001C8A1D8A1E8A1F8A188ECE018F5B9F4F44
:1021B0009E012B593F4FF9014081518129A13AA13C
:1021C000BA01621B730B9B01FC0131832083AE01BA
:1021D0004F5B5F4FCE018F599F4F9E012F5B3F4F4B
:1021E000F90120813181FC01808191812817390713
:1021F0000CF4C901FA019183808389A19AA19EA35D
:102200008DA31CA21BA246C48BA19CA1880F991F61
:10221000880F991F880F991F9E01215A3F4FF9017E
:1022200020813181820F931FFC012081298FFC01C5
:1022300021812A8FFC0122812B8FFC0123812C8F8D
:10224000FC0124812D8FFC0125812E8FFC0126812C
:102250002F8FFC01878188A388A5882309F461C09A
:1022600029893A894B895C896D897E898F89988D06
:10227000A98CBA8CCB8CDC8CED8CFE8C0F8D18A1CC
:102280000E948A96A22EB32EC42ED52EE62EF72EAD
:10229000082F192F2A2D3B2D4C2D5D2D6E2D7F2DB6
:1022A000802F912FAFEF0E947E96298F3A8F4B8F10
:1022B0005C8F6D8F7E8F8F8F98A3E1E0A98CBA8C95
:1022C000CB8CDC8CED8CFE8C0F8D18A129883A8884
:1022D0004B885C886D887E888F88988C2A2D3B2D52
:1022E0004C2D5D2D6E2D7F2D802F912FA22CB32C88
:1022F000C42CD52CE62CF72C082D192D0E94939672
:1023000008F0E0E02E2F30E040E050E060E070E0C8
:10231000CB01298B3A8B4B8B5C8B6D8B7E8B8F8BA0
:10232000988FFE01ED5BFF4F298D3A8D4B8D5C8DB3
:102330006D8D7E8D8F8D98A100E20E945A96A22EFF
:10234000B32EC42ED52EE62EF72E082F192FA082DD
:10235000B182C282D382E482F58206831783898D9B
:102360008F7F898F8A8D8F7F8A8F8B8D8F7F8B8FC9
:102370008C8D8F7F8C8F8D8D80708D8F8E8D8070EA
:102380008E8F8F8D80708F8F88A1807088A34E0173
:10239000FBE48F0E911CA98CBA8CCB8CDC8CED8C61
:1023A000FE8C0F8D18A129A93AA94BA95CA96DA98A
:1023B0007EA98FA998AD0E94EF95A22EB32EC42EB0
:1023C000D52EE62EF72E082F192FF401A082F40146
:1023D000B182F401C282F401D382F401E482F401F7
:1023E000F582F4010683F40117834E01F3E58F0EA5
:1023F000911CCE018D5B9F4FFC01A080FC01B18040
:10240000FC01C280FC01D380FC01E480FC01F5806A
:10241000FC010681FC01178129AD3AAD4BAD5CADE5
:102420006DAD7EAD8FADFE01E05CFF4F90810E94EF
:10243000EF95A22EB32EC42ED52EE62EF72E082F02
:10244000192FF401A082F401B182F401C282F401D7
:10245000D382F401E482F401F582F4010683F401ED
:1024600017838DA19EA1880F991F880F991F880F30
:10247000991F9E012D593F4FF90120813181820F13
:10248000931FFC01A080FC01B180FC01C280FC0113
:10249000D380FC01E480FC01F580FC010681FC0195
:1024A00017812A2D3B2D4C2D5D2D6E2D7F2D802FDC
:1024B000912FA980BA80CB80DC80ED80FE800F81D7
:1024C00018850E947596A22EB32EC42ED52EE62E08
:1024D000F72E082F192FA9A6BAA6CBA6DCA6EDA623
:1024E000FEA60FA718ABE1E0A9A4BAA4CBA4DCA474
:1024F000EDA4FEA40FA518A929803A804B805C802A
:102500006D807E808F8098842A2D3B2D4C2D5D2DF3
:102510006E2D7F2D802F912FA22CB32CC42CD52C67
:10252000E62CF72C082D192D0E94939608F0E0E078
:102530002E2F30E040E050E060E070E0CB012983D6
:102540003A834B835C836D837E838F839887A9ACAA
:10255000BAACCBACDCACEDACFEAC0FADCE01805C6C
:102560009F4FFC011081298D3A8D4B8D5C8D6D8DB7
:102570007E8D8F8D98A10E94EF95A22EB32EC42E32
:10258000D52EE62EF72E082F192FA98EBA8ECB8EB8
:10259000DC8EED8EFE8E0F8F18A329A53AA54BA5D4
:1025A0005CA56DA57EA58FA598A9A98CBA8CCB8CAE
:1025B000DC8CED8CFE8C0F8D18A10E947596A22EDE
:1025C000B32EC42ED52EE62EF72E082F192FA9A62E
:1025D000BAA6CBA6DCA6EDA6FEA60FA718ABE1E037
:1025E000A9A4BAA4CBA4DCA4EDA4FEA40FA518A9A9
:1025F000298C3A8C4B8C5C8C6D8C7E8C8F8C98A04B
:102600002A2D3B2D4C2D5D2D6E2D7F2D802F912F52
:10261000A22CB32CC42CD52CE62CF72C082D192D6C
:102620000E94939608F0E0E0AE2EB12CC12CD12C84
:10263000E12CF12C87012A2D3B2D4C2D5D2D6E2D8B
:102640007F2D802F912FA980BA80CB80DC80ED80F8
:10265000FE800F8118850E947596A22EB32EC42E7F
:10266000D52EE62EF72E082F192FA982BA82CB82FB
:10267000DC82ED82FE820F831887FE01E55BFF4F4F
:102680002081318142815381648175818681978166
:1026900000E20E943F96A22EB32EC42ED52EE62E27
:1026A000F72E082F192FA98EBA8ECB8EDC8EED8EC9
:1026B000FE8E0F8F18A329A53AA54BA55CA56DA585
:1026C0007EA58FA598A9A98CBA8CCB8CDC8CED8CBF
:1026D000FE8C0F8D18A10E947596A22EB32EC42ECB
:1026E000D52EE62EF72E082F192FA9A6BAA6CBA60F
:1026F000DCA6EDA6FEA60FA718ABE1E0A9A4BAA43C
:10270000CBA4DCA4EDA4FEA40FA518A9298C3A8CB7
:102710004B8C5C8C6D8C7E8C8F8C98A02A2D3B2DE5
:102720004C2D5D2D6E2D7F2D802F912FA22CB32C43
:10273000C42CD52CE62CF72C082D192D0E9493962D
:1027400008F0E0E0AE2EB12CC12CD12CE12CF12C04
:1027500087012A2D3B2D4C2D5D2D6E2D7F2D802F39
:10276000912FA980BA80CB80DC80ED80FE800F8124
:1027700018850E947596A22EB32EC42ED52EE62E55
:10278000F72E082F192FA982BA82CB82DC82ED8224
:10279000FE820F831887FE01ED5AFF4F20813181A1
:1027A00042815381648175818681978100E20E9414
:1027B0003F96A22EB32EC42ED52EE62EF72E082F2E
:1027C000192FA98EBA8ECB8EDC8EED8EFE8E0F8FDA
:1027D00018A329A53AA54BA55CA56DA57EA58FA537
:1027E00098A9A98CBA8CCB8CDC8CED8CFE8C0F8DCF
:1027F00018A10E947596A22EB32EC42ED52EE62EB9
:10280000F72E082F192FA9A6BAA6CBA6DCA6EDA6EF
:10281000FEA60FA718ABE1E0A9A4BAA4CBA4DCA440
:10282000EDA4FEA40FA518A9298C3A8C4B8C5C8CC6
:102830006D8C7E8C8F8C98A02A2D3B2D4C2D5D2D80
:102840006E2D7F2D802F912FA22CB32CC42CD52C34
:10285000E62CF72C082D192D0E94939608F0E0E045
:10286000AE2EB12CC12CD12CE12CF12C87012A2DBC
:102870003B2D4C2D5D2D6E2D7F2D802F912FA9800E
:10288000BA80CB80DC80ED80FE800F8118850E94AD
:102890007596A22EB32EC42ED52EE62EF72E082F17
:1028A000192FA982BA82CB82DC82ED82FE820F834D
:1028B00018878DA19EA1880F991F880F991F880FD7
:1028C000991F9E012D593F4FF90120813181820FBF
:1028D000931F29A5FC0120832AA5FC0121832BA598
:1028E000FC0122832CA5FC0123832DA5FC0124835C
:1028F0002EA5FC0125832FA5FC01268328A9FC0118
:102900002783FE01E55BFF4F2081318142815381A6
:10291000648175818681978100E20E945A96A22E79
:10292000B32EC42ED52EE62EF72E082F192F2A2DC2
:102930003B2D4C2D5D2D6E2D7F2D802F912FA9804D
:10294000BA80CB80DC80ED80FE800F8118850E94EC
:102950007596A22EB32EC42ED52EE62EF72E082F56
:10296000192FA982BA82CB82DC82ED82FE820F838C
:102970001887FE01ED5AFF4F20813181428153813A
:10298000648175818681978100E20E945A96A22E09
:10299000B32EC42ED52EE62EF72E082F192F2A2D52
:1029A0003B2D4C2D5D2D6E2D7F2D802F912FA980DD
:1029B000BA80CB80DC80ED80FE800F8118850E947C
:1029C0007596A22EB32EC42ED52EE62EF72E082FE6
:1029D000192FA982BA82CB82DC82ED82FE820F831C
:1029E0001887CE018D5B9F4FFC01A080FC01B18058
:1029F000FC01C280FC01D380FC01E480FC01F58075
:102A0000FC010681FC01178129A93AA94BA95CA9FF
:102A10006DA97EA98FA998AD0E94EF95222E332E25
:102A2000442E552E662E772E882E992EA22CB32C4E
:102A3000C42CD52CE62CF72C082D192D2A2D3B2D36
:102A40004C2D5D2D6E2D7F2D802F912FA980BA806A
:102A5000CB80DC80ED80FE800F8118850E9475960A
:102A6000A22EB32EC42ED52EE62EF72E082F192F08
:102A7000A982BA82CB82DC82ED82FE820F83188724
:102A80008DA19EA101969EA38DA38BA19CA10196D1
:102A90009CA38BA3CE018F5B9F4F2BA13CA1FC017C
:102AA00080819181281739070CF4AECBCE018B5968
:102AB0009F4F2DA13EA1FC018081918128173907EC
:102AC00044F58DA19EA1880F991F880F991F880F2B
:102AD000991F9E012D593F4FF90120813181820FAD
:102AE000931F2981FC0120832A81FC0121832B81F2
:102AF000FC0122832C81FC0123832D81FC01248392
:102B00002E81FC0125832F81FC0126832885FC0171
:102B1000278389A19AA101969AA389A3CE01835AFA
:102B20009F4F29A13AA1FC01808191812817390783
:102B30000CF465CA9FA188A5981709F4C6C081E066
:102B400089831A821B821C821D821E821F82188624
:102B50001EA21DA2AEC08DA19EA1880F991F880F35
:102B6000991F880F991F9E012D593F4FF901208110
:102B70003181820F931FFC012080FC013180FC0118
:102B80004280FC015380FC016480FC017580FC01E3
:102B90008680FC01978029813A814B815C816D811F
:102BA0007E818F819885A22CB32CC42CD52CE62C49
:102BB000F72C082D192D0E948A96A22EB32EC42E12
:102BC000D52EE62EF72E082F192F2A2D3B2D4C2D12
:102BD0005D2D6E2D7F2D802F912FAFEF0E947E9661
:102BE00029A73AA74BA75CA76DA77EA78FA798AB8D
:102BF0008DA19EA1880F991F880F991F880F991F7B
:102C00009E012D593F4FF90120813181820F931F81
:102C100029A5FC0120832AA5FC0121832BA5FC0109
:102C200022832CA5FC0123832DA5FC0124832EA542
:102C3000FC0125832FA5FC01268328A9FC012783FD
:102C4000E1E0A9A4BAA4CBA4DCA4EDA4FEA40FA542
:102C500018A929803A804B805C806D807E808F80AF
:102C600098842A2D3B2D4C2D5D2D6E2D7F2D802F90
:102C7000912FA22CB32CC42CD52CE62CF72C082D8C
:102C8000192D0E94939608F0E0E02E2F30E040E0EE
:102C900050E060E070E0CB0129833A834B835C8392
:102CA0006D837E838F8398878DA19EA101969EA3BD
:102CB0008DA3CE018B599F4F2DA13EA1FC01808198
:102CC0009181281739070CF446CF0000CA59DF4F0D
:102CD0000FB6F894DEBF0FBECDBFDF91CF911F912D
:102CE0000F91FF90EF90DF90CF90BF90AF909F90AB
:102CF0008F907F906F905F904F903F902F900895AE
:102D00008F929F92AF92BF92CF92DF92EF92FF92FB
:102D10000F931F93CF93DF93CDB7DEB7AA970FB66C
:102D2000F894DEBF0FBECDBF9AA789A789A59AA543
:102D3000FC0184AD95ADFC0180819181FC01808115
:102D40009181A281B3818B839C83AD83BE8389A54E
:102D50009AA5FC0184859585A685B7858F8398877C
:102D6000A987BA8789A59AA5FC0180899189FC0168
:102D700080819181A281B3818B879C87AD87BE873B
:102D800089A59AA5805C9F4FFC0180819181FC01FF
:102D900080819181988B8F8789A59AA5FC01848178
:102DA00095819A8B898B89899A89FC01808191818F
:102DB0009C8B8B8B89899A89FC01828193819E8B64
:102DC0008D8B89899A89FC0184819581988F8F8B5D
:102DD00089899A89FC01868197819A8F898F85E0FC
:102DE00090E09C8F8B8F89A59AA5FC0182819381AD
:102DF000FC01118210828B8D9C8DAC01440F551FFC
:102E0000440F551F2F8538898B899C89B9010E94F1
:102E1000BB9689A59AA5FC0182AD93AD2D893E890B
:102E2000FC01318320830E94EB2B8091E40290917E
:102E3000E502A091E602B091E7022B853C854D8525
:102E40005E85BC01CD010E944C7BDC01CB018D8FE6
:102E50009E8FAF8FB8A31A82198247C089819A8149
:102E6000880F991F880F991F2B893C89820F931F08
:102E7000FC01C080D180E280F38089819A81880F33
:102E8000991F880F991F2D893E89820F931FFC017E
:102E900080819181A281B3812D8D3E8D4F8D58A16E
:102EA000BC01CD010E944C7BDC01CB01AC01BD011A
:102EB00089819A81880F991F880F991F2F853889DA
:102EC0008901080F191F9A01AB01C701B6010E94C1
:102ED000E578DC01CB01F80180839183A283B38381
:102EE00089819A8101969A83898329813A818B8D80
:102EF0009C8D281739070CF4B1CF8091080390916D
:102F00000903A0910A03B0910B032B853C854D85E5
:102F10005E85BC01CD010E944C7BDC01CB016C01C4
:102F20007D0189A59AA5FC0184AD95ADFC010081C8
:102F300011812B813C814D815E81C701B6010E94C8
:102F4000E578DC01CB01F80180839183A283B38310
:102F500089A59AA5FC0182AD93AD2F89388DFC011E
:102F60003183208359D20E94EB2B1A8219822FC001
:102F700089819A810396880F991F880F991F8C5118
:102F80009D4FFC0180819181A281B3812B853C857D
:102F90004D855E85BC01CD010E944C7BDC01CB01DF
:102FA00029813A81220F331F220F331FAE014F5F59
:102FB0005F4F240F351F245E3F4FF90180839183BB
:102FC000A283B38389819A8101969A8389838981B7
:102FD0009A8102976CF21A8219826AC089819A8159
:102FE000880F991F880F991F2B893C89820F931F87
:102FF000FC01C080D180E280F38089819A81880FB2
:10300000991F880F991F2D893E89820F931FFC01FC
:1030100080819181A281B3812D8D3E8D4F8D58A1EC
:10302000BC01CD010E944C7BDC01CB014C015D0158
:1030300089819A81880F991F880F991F2F89388D50
:10304000820F931FFC0180819181A281B38129A10C
:103050003AA14BA15CA1BC01CD010E944C7BDC01DB
:10306000CB019C01AD01C501B4010E94E578DC01F2
:10307000CB01AC01BD0189819A81880F991F880F0E
:10308000991F2F8538898901080F191F9A01AB01F3
:10309000C701B6010E94E578DC01CB01F80180830D
:1030A0009183A283B38389819A8101969A838983CC
:1030B00029813A818B8D9C8D281739070CF48ECF8E
:1030C00080910C0390910D03A0910E03B0910F031A
:1030D0002B853C854D855E85BC01CD010E944C7BD6
:1030E000DC01CB016C017D0189A59AA5FC0184ADB1
:1030F00095ADFC01008111812B813C814D815E8168
:10310000C701B6010E94E578DC01CB01F80180839C
:103110009183A283B38389A59AA5FC0182AD93AD67
:10312000298D3A8DFC013183208376D10E94EB2BCF
:103130001A8219822FC089819A810696880F991F59
:10314000880F991F8C519D4FFC0180819181A28134
:10315000B3812B853C854D855E85BC01CD010E94E8
:103160004C7BDC01CB0129813A81220F331F220FD6
:10317000331FAE014F5F5F4F240F351F245E3F4F5B
:10318000F90180839183A283B38389819A81019617
:103190009A83898389819A8103976CF21A821982B2
:1031A0008DC089819A81880F991F880F991F2B895B
:1031B0003C89820F931FFC01C080D180E280F380A4
:1031C00089819A81880F991F880F991F2D893E89BF
:1031D000820F931FFC0180819181A281B3812D8D8B
:1031E0003E8D4F8D58A1BC01CD010E944C7BDC016E
:1031F000CB014C015D0189819A81880F991F880F4D
:10320000991F2F89388D820F931FFC018081918136
:10321000A281B38129A13AA14BA15CA1BC01CD013E
:103220000E944C7BDC01CB019C01AD01C501B401C6
:103230000E94E578DC01CB014C015D0189819A8116
:10324000880F991F880F991F298D3A8D820F931F20
:10325000FC0180819181A281B3812DA13EA14FA16A
:1032600058A5BC01CD010E944C7BDC01CB019C0127
:10327000AD01C501B4010E94E578DC01CB01AC01D0
:10328000BD0189819A81880F991F880F991F2F8509
:1032900038898901080F191F9A01AB01C701B601CE
:1032A0000E94E578DC01CB01F80180839183A28341
:1032B000B38389819A8101969A83898329813A818E
:1032C0008B8D9C8D281739070CF46BCF89A59AA597
:1032D000FC0184AD95ADFC01208131818F81988501
:1032E000A985BA85F90180839183A283B38389A5D7
:1032F0009AA5FC018281938121E030E0FC013183B9
:1033000020830000AA960FB6F894DEBF0FBECDBF93
:10331000DF91CF911F910F91FF90EF90DF90CF90B1
:10332000BF90AF909F908F900895CF93DF9300D080
:1033300000D01F921F92CDB7DEB79A8389834B834B
:103340005C836D837E8338872F8389819A81855E34
:103350009E4FFC0180819181019759F42F8138851E
:103360008B819C81AD81BE81F90180839183A28391
:10337000B383000028960FB6F894DEBF0FBECDBF12
:10338000DF91CF910895CF93DF931F921F92CDB716
:10339000DEB79A83898389819A81FC018181928138
:1033A000A381B4810197A105B10581F589819A8135
:1033B000FC018581882351F16DE070E080E090E0B0
:1033C0000E94E2059C0189819A81FC013783268352
:1033D00089819A81FC018681978140E050E060E01C
:1033E00070E80E9469056DE070E080E090E00E9466
:1033F000E2059C0189819A81FC01378326838981BA
:103400009A81FC01868197810E94BD0500000F9082
:103410000F90DF91CF9108952F923F924F925F923C
:103420006F927F928F929F92AF92BF92CF92DF92D4
:10343000EF92FF920F931F93CF93DF93CDB7DEB739
:10344000CD54D1090FB6F894DEBF0FBECDBF80E1D9
:1034500094E0855E9E4FFC0180819181019709F087
:10346000A9C080E194E08D5F9E4FFC018081918135
:10347000A281B3818F3F9F4FAF4FBF4FA9F580E12E
:1034800094E0895F9E4FFC0180819181A281B3818C
:103490000196A11DB11DBC01CD010E94E9797B01FE
:1034A0008C0180E194E0855F9E4FFC0180819181D9
:1034B000A281B3819C01AD01C801B7010E944C7B80
:1034C000DC01CB0100E114E020E030E040E85FE403
:1034D000BC01CD010E944C7BDC01CB01F801808B4B
:1034E000918BA28BB38B66C080E194E08D5F9E4F81
:1034F000FC0180819181A281B3810196A11DB11D42
:10350000BC01CD010E94E9797B018C0180E194E04E
:10351000855F9E4FFC0180819181A281B3819C01D6
:10352000AD01C801B7010E944C7BDC01CB016C01ED
:103530007D0180E194E0895F9E4FFC018081918153
:10354000A281B381BC01CD010E94E97926966CAFBE
:103550007DAF8EAF9FAF269780E194E0855F9E4F51
:10356000FC0180819181A281B3819C01AD012696ED
:103570006CAD7DAD8EAD9FAD26970E944C7BDC017E
:10358000CB0120E030E040E85FE4BC01CD010E94C7
:103590004C7BDC01CB0100E114E09C01AD01C701D3
:1035A000B6010E94E578DC01CB01F801808B918B9C
:1035B000A28BB38B80E194E0855E9E4FFC018081FD
:1035C0009181892BD9F480E194E0805C9F4FFC01CC
:1035D00080819181FC018081918120E134E0225E33
:1035E0003E4FF90120813181FC0180819181A281CE
:1035F000B381F90180839183A283B38380912F0EDD
:10360000082E000C990B9C8B8B8B1C861B868B8940
:103610009C8982309105B1F08330910528F40097A0
:1036200049F0019751F019C08330910581F004975A
:1036300089F013C01C861B860FC083E090E09C8736
:103640008B870AC083E090E09C878B8705C01C862F
:103650001B8602C01C861B8600008B8580932F0E64
:103660008091BB0D9091BC0DA091BD0DB091BE0D90
:103670002091400230914102409142025091430218
:10368000BC01CD010E944979882381F080914002DC
:1036900090914102A0914202B09143028093BB0DF0
:1036A0009093BC0DA093BD0DB093BE0DCE018F5B6A
:1036B0009F4F2CE0FC0120838091B10D9091B20DC1
:1036C000AE014F5B5F4FC12CEE24E39401E010E0AC
:1036D00020E030E066E370E00E94830A282FCE01EC
:1036E0008F5B9F4FFC012083CE018F5B9F4FFC01BE
:1036F00080818823C9F48091B10D9091B20DAE0103
:103700004F5B5F4FCC24C394E12C01E010E020E03C
:1037100030E066E370E00E94B809CE018F5B9F4FF6
:10372000FC0180818FAF01C01FAE8091A70D9091E9
:10373000A80DA091A90DB091AA0D2091440230913D
:1037400045024091460250914702BC01CD010E94C2
:103750004979882381F08091440290914502A0919B
:103760004602B09147028093A70D9093A80DA093B5
:10377000A90DB093AA0DCE018F5B9F4F2DE0FC01E8
:10378000208380919D0D90919E0DAE014F5B5F4F08
:10379000C12CEE24E39401E010E020E030E066E389
:1037A00070E00E94830A282FCE018F5B9F4FFC019F
:1037B0002083CE018F5B9F4FFC0180818823E9F439
:1037C00080919D0D90919E0DAE014F5B5F4FCC247B
:1037D000C394E12C01E010E020E030E066E370E00B
:1037E0000E94B809CE018F5B9F4FFC012081CE0162
:1037F000805C9F4FFC01208305C0CE01805C9F4F01
:10380000FC0110828FAD882F90E0382F2227CE0147
:10381000805C9F4FFC018081882F90E0820F931F76
:10382000CC01A0E0B0E080937B0D90937C0DA09341
:103830007D0DB0937E0D80E194E0855E9E4FFC018E
:1038400080819181019701F580911F0E9091200E4A
:10385000A091210EB091220E80937F0D9093800D48
:10386000A093810DB093820D8091230E9091240E30
:10387000A091250EB091260E8093830D9093840D18
:10388000A093850DB093860D8091830D9091840D4A
:10389000A091850DB091860D81159840A105B04885
:1038A0004CF480E090E0A0E0B0E88BAF9CAFADAF0F
:1038B000BEAF0FC08091830D9091840DA091850DB6
:1038C000B091860D9850A109B1098BAF9CAFADAFF7
:1038D000BEAF8091830D9091840DA091850DB09124
:1038E000860D81309840A105B1050CF41BC12091D3
:1038F0007B0D30917C0D40917D0D50917E0D8BADF7
:103900009CADADADBEAD281739074A075B070CF07B
:1039100009C180917F0D9091800DA091810DB09192
:10392000820D8115904FAF4FBF474CF08FEF9FEF47
:10393000AFEFBFE78BAF9CAFADAFBEAF0FC0809115
:103940007F0D9091800DA091810DB091820D905FBF
:10395000AF4FBF4F8BAF9CAFADAFBEAF8BAD9CAD8C
:10396000ADADBEADBB23F4F02091830D3091840D3D
:103970004091850D5091860D8BAD9CADADADBEAD2A
:103980008F5F9F4FAF4FBF47281739074A075B0725
:103990004CF48FEF9FEFAFEFBFE78BAF9CAFADAFB6
:1039A000BEAF39C08BAD9CADADADBEADBB23DCF4BD
:1039B0002091830D3091840D4091850D5091860D9D
:1039C0008BAD9CADADADBEADB05882179307A407CB
:1039D000B5074CF480E090E0A0E0B0E88BAF9CAF7E
:1039E000ADAFBEAF18C02BAD3CAD4DAD5EAD80915F
:1039F000830D9091840DA091850DB091860D590194
:103A00006A01A81AB90ACA0ADB0AD601C5018BAF36
:103A10009CAFADAFBEAF8BAD9CADADADBEADBB236E
:103A20006CF580917B0D90917C0DA0917D0DB091F6
:103A30007E0D9C0140E050E08BAD9CADADADBEADC8
:103A4000E12CF12C00E010E857016801A81AB90A2E
:103A5000CA0ADB0AD601C501281739074A075B07DE
:103A60006CF480E090E0A0E0B0E88093870D909344
:103A7000880DA093890DB0938A0D53C08BAD9CAD7A
:103A8000ADADBEAD181619061A061B0674F5809169
:103A90007B0D90917C0DA0917D0DB0917E0D9C01D0
:103AA00040E050E08BAD9CADADADBEADEE24EA94F0
:103AB000FE2C0FEF1FE757016801A81AB90ACA0ABE
:103AC000DB0AD601C50182179307A407B5076CF47A
:103AD0008FEF9FEFAFEFBFE78093870D9093880D37
:103AE000A093890DB0938A0D1CC080917B0D90919D
:103AF0007C0DA0917D0DB0917E0D9C0140E050E0C9
:103B00008BAD9CADADADBEAD820F931FA41FB51F95
:103B10008093870D9093880DA093890DB0938A0DA3
:103B200028C227C280917B0D90917C0DA0917D0DC4
:103B3000B0917E0D8130984008F425C12091830D0D
:103B40003091840D4091850D5091860D80917B0DB3
:103B500090917C0DA0917D0DB0917E0DCC01A0E0E7
:103B6000B0E09850A109B109281739074A075B0747
:103B70000CF009C180917F0D9091800DA091810D75
:103B8000B091820D81159041A105B0484CF480E0C0
:103B900090E0A0E0B0E88BAF9CAFADAFBEAF0FC080
:103BA00080917F0D9091800DA091810DB091820D3B
:103BB0009051A109B1098BAF9CAFADAFBEAF8BAD3A
:103BC0009CADADADBEADBB23F4F02091830D309123
:103BD000840D4091850D5091860D8BAD9CADADADA2
:103BE000BEAD8F5F9F4FAF4FBF47281739074A07BA
:103BF0005B074CF48FEF9FEFAFEFBFE78BAF9CAF4E
:103C0000ADAFBEAF39C08BAD9CADADADBEADBB23CE
:103C1000DCF42091830D3091840D4091850D5091FD
:103C2000860D8BAD9CADADADBEADB0588217930780
:103C3000A407B5074CF480E090E0A0E0B0E88BAFBB
:103C40009CAFADAFBEAF18C02BAD3CAD4DAD5EADC2
:103C50008091830D9091840DA091850DB091860D7A
:103C600059016A01A81AB90ACA0ADB0AD601C501B4
:103C70008BAF9CAFADAFBEAF8BAD9CADADADBEADB0
:103C8000BB236CF580917B0D90917C0DA0917D0DF7
:103C9000B0917E0D9C0140E050E08BAD9CADADAD90
:103CA000BEADE12CF12C00E010E857016801A81A24
:103CB000B90ACA0ADB0AD601C501281739074A071B
:103CC0005B076CF480E090E0A0E0B0E88093870DA3
:103CD0009093880DA093890DB0938A0D53C08BAD3E
:103CE0009CADADADBEAD181619061A061B0674F5CF
:103CF00080917B0D90917C0DA0917D0DB0917E0DFA
:103D00009C0140E050E08BAD9CADADADBEADEE246E
:103D1000EA94FE2C0FEF1FE757016801A81AB90AB1
:103D2000CA0ADB0AD601C50182179307A407B507A3
:103D30006CF48FEF9FEFAFEFBFE78093870D909309
:103D4000880DA093890DB0938A0D1CC080917B0DC6
:103D500090917C0DA0917D0DB0917E0D9C0140E075
:103D600050E08BAD9CADADADBEAD820F931FA41FD7
:103D7000B51F8093870D9093880DA093890DB09304
:103D80008A0DF7C0F6C080917F0D9091800DA091B3
:103D9000810DB091820DBB2314F12091830D3091E0
:103DA000840D4091850D5091860D80917F0D9091ED
:103DB000800DA091810DB091820D8F5F9F4FAF4F0D
:103DC000BF47281739074A075B074CF48FEF9FEF6F
:103DD000AFEFBFE78BAF9CAFADAFBEAF45C080913B
:103DE0007F0D9091800DA091810DB091820DBB232C
:103DF000FCF42091830D3091840D4091850D5091FC
:103E0000860D80917F0D9091800DA091810DB091D4
:103E1000820DB05882179307A407B5074CF480E0D1
:103E200090E0A0E0B0E88BAF9CAFADAFBEAF1CC0E0
:103E300020917F0D3091800D4091810D5091820D28
:103E40008091830D9091840DA091850DB091860D88
:103E500069017A01C81AD90AEA0AFB0AD701C60120
:103E60008BAF9CAFADAFBEAF8BAD9CADADADBEADBE
:103E7000BB236CF580917B0D90917C0DA0917D0D05
:103E8000B0917E0D9C0140E050E08BAD9CADADAD9E
:103E9000BEADE12CF12C00E010E857016801A81A32
:103EA000B90ACA0ADB0AD601C501281739074A0729
:103EB0005B076CF480E090E0A0E0B0E88093870DB1
:103EC0009093880DA093890DB0938A0D52C08BAD4D
:103ED0009CADADADBEAD181619061A061B0674F5DD
:103EE00080917B0D90917C0DA0917D0DB0917E0D08
:103EF0009C0140E050E08BAD9CADADADBEADEE247D
:103F0000EA94FE2C0FEF1FE757016801A81AB90ABF
:103F1000CA0ADB0AD601C50182179307A407B507B1
:103F20006CF48FEF9FEFAFEFBFE78093870D909317
:103F3000880DA093890DB0938A0D1BC080917B0DD5
:103F400090917C0DA0917D0DB0917E0D9C0140E083
:103F500050E08BAD9CADADADBEAD820F931FA41FE5
:103F6000B51F8093870D9093880DA093890DB09312
:103F70008A0DC0905002D0905102E0905202F09011
:103F800053028091870D9091880DA091890DB09179
:103F90008A0DBC01CD010E94EB79DC01CB019C01B3
:103FA000AD01C701B6010E944C7BDC01CB017C0155
:103FB0008D018091080290910902A0910A02B091AE
:103FC0000B029C01AD01C801B7010E94E478DC013D
:103FD000CB017C018D018091540290915502A091FA
:103FE0005602B09157029C01AD01C801B7010E9471
:103FF000E578DC01CB018093270D9093280DA093E9
:10400000290DB0932A0D8091270D9091280DA09134
:10401000290DB0912A0DBF7780932B0D90932C0D15
:10402000A0932D0DB0932E0D80E194E0FC018681CC
:104030009781FC0180819181019741F080E194E0BA
:104040008F579F4FFC0180818823B9F180912B0D00
:1040500090912C0DA0912D0DB0912E0D11E029E223
:104060003CE54FE250E4BC01CD010E94127B882365
:104070000CF410E081E081278823C1F480912B0D9E
:1040800090912C0DA0912D0DB0912E0D11E023E3F8
:1040900033E343E650E4BC01CD010E944979181690
:1040A0000CF410E081E08127882319F081E090E092
:1040B00002C080E090E08093270E8091270E082EAA
:1040C000000C990B009721F0019709F448C090C0AB
:1040D00080915C0290915D02A0915E02B0915F02BE
:1040E000E0E1F4E02FE23DE0AC01BD01CF011DD9DC
:1040F00080E194E0FC0186819781FC0180819181BF
:10410000019749F080E194E08F579F4FFC01808137
:10411000882309F46AC080912F0E082E000C990B99
:10412000988F8F8B8F89988D9E878D878F89988D9B
:104130008330910518F4019768F403C0039731F0B8
:1041400009C082E090E09E878D8704C081E090E006
:104150009E878D8700008D8580932F0E46C08091AD
:10416000580290915902A0915A02B0915B02E0E18D
:10417000F4E02FE23DE0AC01BD01CF01D6D880E1F3
:1041800094E0FC0186819781FC01808191810197F7
:1041900041F080E194E08F579F4FFC01808188239C
:1041A00031F180912E0E082E000C990B9E8B8D8B79
:1041B0008D899E89988B8F878D899E898330910503
:1041C00018F4019768F403C0039731F009C082E046
:1041D00090E0988B8F8704C081E090E0988B8F8768
:1041E00000008F8580932E0E02C0000001C00000E9
:1041F00080E194E0855E9E4FFC0180819181019772
:1042000081F48091600290916102A0916202B0916C
:1042100063028093330D9093340DA093350DB093CA
:10422000360D8091920D9091930DA091940DB091C7
:10423000950D20913C0230913D0240913E025091FB
:104240003F02BC01CD010E944979882381F0809111
:104250003C0290913D02A0913E02B0913F028093BA
:10426000920D9093930DA093940DB093950D809122
:10427000910D882311F01092910D2091960DCE0191
:10428000CB96BC01822F0E940103A0908C02B090BB
:104290008D02C0908E02D0908F02E0909002F0903C
:1042A000910200919202109193022A2D3B2D4C2DE8
:1042B0005D2D6E2D7F2D802F912F2BA73CA74DA715
:1042C0005EA76FA778AB89AB9AAB80919C02909167
:1042D0009D02A0919E02B0919F021C012D01BB0F77
:1042E000880B982FDC01682E782E882E982E8BADA7
:1042F0009CADADADBEAD2A968CAF9DAFAEAFBFAF9E
:104300002A97BB0F880B982FDC012B968FAF2B972A
:104310002C968FAF2C972D968FAF2D972E968FAF13
:104320002E972796AFAC27972896BFAC289729964B
:10433000CFAC29972A96DFAC2A972B96EFAC2B9718
:104340002C96FFAC2C972D960FAD2D972E961FAD6A
:104350002E97222D332D442D552D662D772D882D0A
:10436000992D0E94EF95222E332E442E552E662E27
:10437000772E882E992EA22CB32CC42CD52CE62C6B
:10438000F72C082D192D2A2D3B2D4C2D5D2D6E2D32
:104390007F2D802F912F2BAB3CAB4DAB5EAB6FAB2A
:1043A00078AF89AF9AAFAE014D5C5F4FCE018B966F
:1043B0006894EE24E1F8F12C07E11DE021E030E003
:1043C00061E070E00E940A0F40E050E062E070E0BF
:1043D00087E19DE00E947C0DDC01CB0120E030E014
:1043E00040E85EE0BC01CD010E944C7BDC01CB01CA
:1043F0008093370D9093380DA093390DB0933A0DFB
:104400008091330D9091340DA091350DB091360D02
:104410002091370D3091380D4091390D50913A0D62
:10442000BC01CD010E94E478DC01CB017C018D014F
:104430008091640290916502A0916602B09167023A
:104440009C01AD01C801B7010E944C7BDC01CB018E
:1044500080933B0D90933C0DA0933D0DB0933E0D8A
:1044600010923F0D1092400D1092410D1092420D8E
:10447000C0903F0DD090400DE090410DF090420D66
:1044800080916C0290916D02A0916E02B0916F02CA
:104490002091030D3091040D4091050D5091060DB2
:1044A000BC01CD010E944C7BDC01CB019C01AD0124
:1044B000C701B6010E94E578DC01CB0180933F0D76
:1044C0009093400DA093410DB093420D80913B0D10
:1044D00090913C0DA0913D0DB0913E0D20913F0D6E
:1044E0003091400D4091410D5091420DBC01CD01E4
:1044F0000E94E478DC01CB017C018D018091700287
:1045000090917102A0917202B09173029C01AD0171
:10451000C801B7010E944C7BDC01CB018093430DA5
:104520009093440DA093450DB093460D8091270DB7
:104530009091280DA091290DB0912A0DBC01CD01BB
:104540000E941B33882389F080913C0E90913D0E90
:10455000A0913E0EB0913F0E8093770D9093780D11
:10456000A093790DB0937A0D3FC08091270D909163
:10457000280DA091290DB0912A0D20E030E0A9016D
:10458000BC01CD010E94497988236CF480E090E061
:10459000A0E8BFEB8093770D9093780DA093790DF1
:1045A000B0937A0D21C08091270D9091280DA09194
:1045B000290DB0912A0D20E030E0A901BC01CD0108
:1045C0000E94127B18162CF480E090E0A0E8BFE374
:1045D00003C080E090E0DC018093770D9093780D2C
:1045E000A093790DB0937A0D809174029091750229
:1045F000A0917602B091770220912B0D30912C0D75
:1046000040912D0D50912E0DBC01CD010E94E478FA
:10461000DC01CB017C018D018091770D9091780DAB
:10462000A091790DB0917A0D9C01AD01C801B7013F
:104630000E944C7BDC01CB018093470D9093480D89
:10464000A093490DB0934A0D8091430D9091440D74
:10465000A091450DB091460D2091470D3091480D28
:104660004091490D50914A0DBC01CD010E94E47862
:10467000DC01CB01898F9A8FAB8FBC8F80910C02AC
:1046800090910D02A0910E02B0910F02298D3A8DEA
:104690004B8D5C8DBC01CD010E944C7BDC01CB01BC
:1046A0007C018D0180910B0D90910C0DA0910D0D51
:1046B000B0910E0D9C01AD01C801B7010E94E478D4
:1046C000DC01CB017C018D0180912C0290912D02A7
:1046D000A0912E02B0912F029C01AD01C801B7013B
:1046E0000E944C7BDC01CB0180934B0D90934C0DD1
:1046F000A0934D0DB0934E0D8091340290913502F0
:10470000A0913602B0913702298D3A8D4B8D5C8D88
:10471000BC01CD010E944C7BDC01CB017C018D01F1
:104720008091070D9091080DA091090DB0910A0D8F
:104730009C01AD01C801B7010E94E578DC01CB0105
:104740007C018D0180914B0D90914C0DA0914D0DF0
:10475000B0914E0D9C01AD01C801B7010E94E578F2
:10476000DC01CB017C018D0180917802909179026E
:10477000A0917A02B0917B029C01AD01C801B70102
:104780000E944C7BDC01CB0180934F0D9093500D28
:10479000A093510DB093520D80E194E0825E9E4F44
:1047A000FC0180819181FC0180819181A281B38192
:1047B00080936B0D90936C0DA0936D0DB0936E0D67
:1047C0008091D70D9091D80DA091D90DB091DA0DAF
:1047D00020916B0D30916C0D40916D0D50916E0DCF
:1047E000BC01CD010E94127B8823FCF08091DF0D7B
:1047F0009091E00DA091E10DB091E20D20916B0D33
:1048000030916C0D40916D0D50916E0DBC01CD013C
:104810000E94127B88234CF01092530D1092540D7D
:104820001092550D1092560DACC08091D70D9091FD
:10483000D80DA091D90DB091DA0D89839A83AB83FD
:10484000BC838BED9DE09A8789878091D70D9091ED
:10485000D80DA091D90DB091DA0D2091DF0D3091D6
:10486000E00D4091E10D5091E20DBC01CD010E949F
:10487000497988233CF58091DF0D9091E00DA0915E
:10488000E10DB091E20D20916B0D30916C0D4091D6
:104890006D0D50916E0DBC01CD010E9449798823A8
:1048A000BCF58091DF0D9091E00DA091E10DB091EC
:1048B000E20D89839A83AB83BC8383EE9DE09A8764
:1048C000898726C08091D70D9091D80DA091D90DE0
:1048D000B091DA0D20916B0D30916C0D40916D0D02
:1048E00050916E0DBC01CD010E94127B882384F093
:1048F0008091DF0D9091E00DA091E10DB091E20D5E
:1049000089839A83AB83BC8383EE9DE09A878987F2
:104910008091270D9091280DA091290DB0912A0D1D
:1049200029853A85F9012081318142815381BC0179
:10493000CD010E94E478DC01CB016C017D01809106
:104940006B0D90916C0DA0916D0DB0916E0D298144
:104950003A814B815C81BC01CD010E94E478DC018D
:10496000CB019C01AD01C701B6010E945079DC0169
:10497000CB018093530D9093540DA093550DB0939C
:10498000560D80914F0D9091500DA091510DB09109
:10499000520D2091530D3091540D4091550D509171
:1049A000560DBC01CD010E94E478DC01CB01898366
:1049B0009A83AB83BC838091100290911102A091E5
:1049C0001202B091130229813A814B815C81BC01B2
:1049D000CD010E944C7BDC01CB017C018D018091DB
:1049E000130D9091140DA091150DB091160D9C0111
:1049F000AD01C801B7010E94E478DC01CB017C0164
:104A00008D018091300290913102A0913202B091DB
:104A100033029C01AD01C801B7010E944C7BDC014F
:104A2000CB018093570D9093580DA093590DB093DF
:104A30005A0D80912F0D9091300DA091310DB091B4
:104A4000320D20E030E0A901BC01CD010E9449797E
:104A5000882309F43FC08091380290913902A091D7
:104A60003A02B0913B0229813A814B815C81BC01C1
:104A7000CD010E944C7BDC01CB017C018D0180913A
:104A80000F0D9091100DA091110DB091120D9C0180
:104A9000AD01C801B7010E94E578DC01CB017C01C2
:104AA0008D018091570D9091580DA091590DB091A5
:104AB0005A0D9C01AD01C801B7010E94E578DC01E7
:104AC000CB0180935B0D90935C0DA0935D0DB09333
:104AD0005E0DDEC08091270D9091280DA091290DCB
:104AE000B0912A0DBC01CD010E944D79DC01CB01B2
:104AF0008D839E83AF83B8878091530D9091540D21
:104B0000A091550DB091560DBC01CD010E941B33F3
:104B1000882389F080913C0E90913D0EA0913E0E2D
:104B2000B0913F0E8093770D9093780DA093790DFF
:104B3000B0937A0D3FC08091530D9091540DA09188
:104B4000550DB091560D20E030E0A901BC01CD011A
:104B50000E94497988236CF480E090E0A0E8BFEBE4
:104B60008093770D9093780DA093790DB0937A0D83
:104B700021C08091530D9091540DA091550DB0918D
:104B8000560D20E030E0A901BC01CD010E94127B4E
:104B900018162CF480E090E0A0E8BFE303C080E0AA
:104BA00090E0DC018093770D9093780DA093790DC0
:104BB000B0937A0D8D819E81AF81B885BC01CD0106
:104BC0000E941B33882369F080913C0E90913D0E2A
:104BD000A0913E0EB0913F0E8D839E83AF83B88728
:104BE0002BC020E030E0A9016D817E818F81988506
:104BF0000E94497988234CF480E090E0A0E8BFEB64
:104C00008D839E83AF83B88717C020E030E0A90171
:104C10006D817E818F8198850E94127B18162CF4FD
:104C200080E090E0A0E8BFE303C080E090E0DC011A
:104C30008D839E83AF83B8878091770D9091780D97
:104C4000A091790DB0917A0D2D813E814F815885CB
:104C5000BC01CD010E944C7BDC01CB017C018D01AC
:104C60008091480290914902A0914A02B0914B0272
:104C70009C01AD01C801B7010E944C7BDC01CB0156
:104C800080935B0D90935C0DA0935D0DB0935E0DD2
:104C900080915B0D90915C0DA0915D0DB0915E0DCA
:104CA00020918002309181024091820250918302D2
:104CB000BC01CD010E94127B88238CF080914C02B4
:104CC00090914D02A0914E02B0914F028093770DCA
:104CD0009093780DA093790DB0937A0D10C08091C8
:104CE0007C0290917D02A0917E02B0917F02809320
:104CF000770D9093780DA093790DB0937A0D8091F4
:104D0000770D9091780DA091790DB0917A0D11E009
:104D100020E030E0A901BC01CD010E94497988233F
:104D200009F010E0812F682F84E00E94F304809145
:104D3000770D9091780DA091790DB0917A0D11E0D9
:104D400020E030E0A901BC01CD010E94497988230F
:104D500009F410E0812F682F85E00E94F3048FECA6
:104D60009DE09E8F8D8F80915B0D90915C0DA09149
:104D70005D0DB0915E0DBF77209184023091850268
:104D80004091860250918702BC01CD010E94E578D6
:104D9000DC01CB018093770D9093780DA093790D72
:104DA000B0937A0D8091770D9091780DA091790D47
:104DB000B0917A0D209104023091050240910602D3
:104DC00050910702BC01CD010E94127B18168CF491
:104DD0008091040290910502A0910602B091070211
:104DE0008093770D9093780DA093790DB0937A0D01
:104DF0002AC0E090770DF090780D0091790D109118
:104E00007A0D8091040290910502A0910602B09162
:104E10000702B0589C01AD01C801B7010E94497951
:104E200088238CF48091040290910502A0910602DF
:104E3000B0910702B0588093770D9093780DA093AE
:104E4000790DB0937A0D8091770D9091780DA091A6
:104E5000790DB0917A0D11E020E030E04FE753E496
:104E6000BC01CD010E94497918160CF410E081E0D4
:104E70008127882361F080E090E0AFE7B3E480937E
:104E8000770D9093780DA093790DB0937A0D6DE026
:104E900070E080E090E00E94E2059C018D8D9E8D87
:104EA000FC01378326838091770D9091780DA09136
:104EB000790DB0917A0D11E020E030E0A901BC013C
:104EC000CD010E94127B88230CF410E081E0812741
:104ED000882341F01092770D1092780D1092790D81
:104EE00010927A0D8091770D9091780DA091790DA7
:104EF000B0917A0D20E030E04FE753E4BC01CD01E2
:104F00000E944C7BDC01CB0120E030E04FE753E412
:104F1000BC01CD010E945079DC01CB01B058209139
:104F2000D50D3091D60DAC01BD01C9010E946905B6
:104F30008091140290911502A0911602B09117026F
:104F400029813A814B815C81BC01CD010E944C7B5F
:104F5000DC01CB0180935F0D9093600DA093610DF8
:104F6000B093620D8091180290911902A0911A02DB
:104F7000B0911B02298D3A8D4B8D5C8DBC01CD010A
:104F80000E944C7BDC01CB018093630D9093640DF8
:104F9000A093650DB093660D8091E70D9091E80D9B
:104FA000A091E90DB091EA0D20916B0D30916C0D3F
:104FB00040916D0D50916E0DBC01CD010E94127B90
:104FC0008823FCF08091EF0D9091F00DA091F10DF0
:104FD000B091F20D20916B0D30916C0D40916D0DE3
:104FE00050916E0DBC01CD010E94127B88234CF0C4
:104FF0001092670D1092680D1092690D10926A0D53
:10500000ACC08091E70D9091E80DA091E90DB091B1
:10501000EA0D89839A83AB83BC838BEE9DE09A87EC
:1050200089878091E70D9091E80DA091E90DB091ED
:10503000EA0D2091EF0D3091F00D4091F10D50915E
:10504000F20DBC01CD010E94497988233CF5809185
:10505000EF0D9091F00DA091F10DB091F20D209116
:105060006B0D30916C0D40916D0D50916E0DBC012A
:10507000CD010E9449798823BCF58091EF0D909174
:10508000F00DA091F10DB091F20D89839A83AB835D
:10509000BC8383EF9DE09A87898726C08091E70DC6
:1050A0009091E80DA091E90DB091EA0D20916B0D62
:1050B00030916C0D40916D0D50916E0DBC01CD0184
:1050C0000E94127B882384F08091EF0D9091F00D67
:1050D000A091F10DB091F20D89839A83AB83BC83CB
:1050E00083EF9DE09A8789878091370D9091380DE5
:1050F000A091390DB0913A0D29853A85F9012081A9
:10510000318142815381BC01CD010E94E478DC01F0
:10511000CB016C017D0180916B0D90916C0DA09184
:105120006D0DB0916E0D29813A814B815C81BC017E
:10513000CD010E94E478DC01CB019C01AD01C701E7
:10514000B6010E945079DC01CB018093670D9093EA
:10515000680DA093690DB0936A0D80E194E0855EBF
:105160009E4FFC0180819181019781F48091F70D20
:105170009091F80DA091F90DB091FA0D80936F0DFB
:105180009093700DA093710DB093720D80916B0D83
:1051900090916C0DA0916D0DB0916E0D20916F0DE1
:1051A0003091700D4091710D5091720DBC01CD0187
:1051B0000E94E478DC01CB018093730D9093740D11
:1051C000A093750DB093760D80E194E0855E9E4FBF
:1051D000FC0180819181019709F056C280E194E041
:1051E000855E9E4FFC0180819181019701F5809140
:1051F000870D9091880DA091890DB0918A0D8093B3
:105200001F0E9093200EA093210EB093220E80913A
:105210007B0D90917C0DA0917D0DB0917E0D8093C2
:10522000230E9093240EA093250EB093260E80910A
:10523000D70D9091D80DA091D90DB091DA0D209194
:10524000380E3091390E40913A0E50913B0EBC0110
:10525000CD010E9449798823C9F480E194E0825EFF
:105260009E4FFC0180819181FC0180819181A2810E
:10527000B3818093D70D9093D80DA093D90DB0939F
:10528000DA0D8BED9DE09A8B898B76C08091DF0DD6
:105290009091E00DA091E10DB091E20D2091380EBA
:1052A0003091390E40913A0E50913B0EBC01CD0128
:1052B0000E9449798823C9F480E194E0825E9E4F80
:1052C000FC0180819181FC0180819181A281B38167
:1052D0008093DF0D9093E00DA093E10DB093E20D6C
:1052E00083EE9DE09A8B898B47C08091D70D90917A
:1052F000D80DA091D90DB091DA0D2091DF0D30912C
:10530000E00D4091E10D5091E20DBC01CD010E94F4
:1053100049798823CCF480E194E0825E9E4FFC01C1
:1053200080819181FC0180819181A281B3818093F0
:10533000D70D9093D80DA093D90DB093DA0D8BEDC6
:105340009DE09A8B898B18C080E194E0825E9E4F2D
:10535000FC0180819181FC0180819181A281B381D6
:105360008093DF0D9093E00DA093E10DB093E20DDB
:1053700083EE9DE09A8B898B8091270D9091280D6B
:10538000A091290DB0912A0D29893A89F9018083CC
:105390009183A283B3838091E70D9091E80DA09152
:1053A000E90DB091EA0D2091380E3091390E4091FF
:1053B0003A0E50913B0EBC01CD010E9449798823E1
:1053C000C9F480E194E0825E9E4FFC01808191816E
:1053D000FC0180819181A281B3818093E70D90933C
:1053E000E80DA093E90DB093EA0D8BEE9DE09A8B4A
:1053F000898B76C08091EF0D9091F00DA091F10D09
:10540000B091F20D2091380E3091390E40913A0E44
:1054100050913B0EBC01CD010E9449798823C9F40B
:1054200080E194E0825E9E4FFC0180819181FC01CD
:1054300080819181A281B3818093EF0D9093F00DD3
:10544000A093F10DB093F20D83EF9DE09A8B898BC1
:1054500047C08091E70D9091E80DA091E90DB091C2
:10546000EA0D2091EF0D3091F00D4091F10D50912A
:10547000F20DBC01CD010E9449798823CCF480E172
:1054800094E0825E9E4FFC0180819181FC018081CD
:105490009181A281B3818093E70D9093E80DA09351
:1054A000E90DB093EA0D8BEE9DE09A8B898B18C0C5
:1054B00080E194E0825E9E4FFC0180819181FC013D
:1054C00080819181A281B3818093EF0D9093F00D43
:1054D000A093F10DB093F20D83EF9DE09A8B898B31
:1054E0008091370D9091380DA091390DB0913A0D02
:1054F00029893A89F90180839183A283B38380E16A
:1055000094E0855E9E4FFC0180819181019781F43A
:1055100080916B0D90916C0DA0916D0DB0916E0D01
:105520008093F70D9093F80DA093F90DB093FA0DB9
:1055300018A21F8E80E194E08D5F9E4FFC01808158
:105540009181A281B381BC01CD010E94E9796B01F7
:105550007C0180E194E0895F9E4FFC018081918114
:10556000A281B381BC01CD010E94E979DC01CB01AC
:1055700020E030E040E85FE4BC01CD010E944C7BBC
:10558000DC01CB019C01AD01C701B6010E94E578A9
:10559000DC01CB0120E030E0A901BC01CD010E947B
:1055A000E578DC01CB01BC01CD010E94BD79DC01B5
:1055B000CB0189A39AA3ABA3BCA389A19AA1ABA158
:1055C000BCA1AC01BD0180E090E00E94870C98A3D3
:1055D0008F8F80E194E0855E9E4FFC0180819181F8
:1055E000019709F051C01EA21DA280E194E0815FE5
:1055F0009E4FFC0180819181A281B381BC01CD01CC
:105600000E94E9796B017C0180E194E08D5E9E4F00
:10561000FC0180819181A281B381BC01CD010E94F6
:10562000E979DC01CB0120E030E040E85FE4BC0137
:10563000CD010E944C7BDC01CB019C01AD01C70177
:10564000B6010E94E578DC01CB0120E030E0A90141
:10565000BC01CD010E94E578DC01CB01BC01CD018C
:105660000E94BD79DC01CB018FA398A7A9A7BAA797
:105670008FA198A5A9A5BAA5AC01BD0181E090E0D4
:105680000E94870C9EA38DA380E194E0855E9E4FCF
:10569000FC0180819181019709F082C080E194E052
:1056A00004960E94801620E134E0C9018D5F9E4F70
:1056B000FC0180819181A281B3810196A11DB11D60
:1056C000A9014D5F5E4FFA0180839183A283B3836A
:1056D000C9018D5F9E4FFC0180819181A281B381C0
:1056E000892B8A2B8B2BA1F420E134E0C901895F3F
:1056F0009E4FFC0180819181A281B3810196A11D01
:10570000B11D295F3E4FF90180839183A283B3834A
:1057100080E194E020E134E0225E3E4FF9012081F7
:105720003181FC0180899189A289B389F901808343
:105730009183A283B38320E134E0C901815F9E4F4E
:10574000FC0180819181A281B3810196A11DB11DCF
:10575000215F3E4FF90180839183A283B38380E16F
:1057600094E0815F9E4FFC0180819181A281B38191
:10577000892B8A2B8B2BA1F420E134E0C9018D5EAB
:105780009E4FFC0180819181A281B3810196A11D70
:10579000B11D2D5E3E4FF90180839183A283B383B7
:1057A0000000C35BDF4F0FB6F894DEBF0FBECDBF66
:1057B000DF91CF911F910F91FF90EF90DF90CF90ED
:1057C000BF90AF909F908F907F906F905F904F9021
:1057D0003F902F900895CF93DF931F921F92CDB7E4
:1057E000DEB780E194E084579F4FFC018081918176
:1057F0009A8389838091680290916902A0916A02DC
:10580000B0916B022091030D3091040D4091050D74
:105810005091060DBC01CD010E944C7BDC01CB01F7
:1058200029813A81F90180839183A283B38389819D
:105830009A81FC0180819181A281B3812091670DC1
:105840003091680D4091690D50916A0DBC01CD01F8
:105850000E94E578DC01CB0129813A81F90180833E
:105860009183A283B3838091630D9091640DA09185
:10587000650DB091660D29813A81F9018483958384
:10588000A683B78380914B0D90914C0DA0914D0D47
:10589000B0914E0D29813A81F90180879187A287C5
:1058A000B38780915F0D9091600DA091610DB091D3
:1058B000620D29813A81F90184879587A687B78788
:1058C0008091570D9091580DA091590DB0915A0D9E
:1058D00029813A81F901808B918BA28BB38B0000D7
:1058E0000F900F90DF91CF910895EF92FF920F9359
:1058F0001F93CF93DF93CDB7DEB72E970FB6F894F3
:10590000DEBF0FBECDBF84E090E045D680E194E0DD
:1059100048E251E060E070E00E94C49620E134E08B
:1059200080E194E0255E3E4FFC013783268320E131
:1059300034E080E194E0225E3E4F805C9F4FFC01AA
:105940003183208320E134E080E194E0255F3E4F05
:10595000FC01358B248B20E134E080E194E0245776
:105960003F4FFC0137AF26AF20E134E080E194E007
:105970002A573F4F8C5B9F4FFC013183208320E1EE
:1059800034E080E194E025503F4F8E5B9F4FFC0157
:105990003183208320E134E080E194E023503F4FC5
:1059A0008A5B9F4FFC013183208320E134E080E15A
:1059B00094E028573F4F885B9F4FFC013183208341
:1059C00020E134E080E194E026573F4F865B9F4F13
:1059D000FC013183208320E134E080E194E08659AA
:1059E0009F4FFC013183208380E194E020E134E08B
:1059F000FC013583248380E194E0FC01868197815A
:105A000021E030E0FC013183208320E134E080E1BB
:105A100094E02D563F4F8D519F4FFC0131832083E1
:105A200020E134E080E194E029553F4F8B519F4FB6
:105A3000FC013183208320E134E080E194E02554AF
:105A40003F4F89519F4FFC013183208320E134E097
:105A500080E194E021533F4F87519F4FFC013183F8
:105A6000208380E194E08A579F4F23E03DE0FC01D2
:105A70003183208320E134E080E194E02D513F4FD9
:105A8000FC013187208780E194E08F579F4FFC0114
:105A9000108280E194E02DED32E0FC013387228713
:105AA00020E134E080E194E0205E3E4F825E9E4F34
:105AB000FC013183208380E194E09C01295E3E4F0C
:105AC00080E090E0A0E8BFEBF90180839183A2839E
:105AD000B38380E194E09C01255F3E4F8AE097ED1F
