:1000000015C100000C94B6870C94E9870C941C88E9
:100010000C944F880C9482880C94B5880C94E888D2
:100020000C941B8934C1000032C1000030C10000B3
:100030002EC100002CC100002AC1000028C1000010
:1000400026C1000024C1000022C1000020C1000020
:100050001EC100001CC100001AC100000C944E8992
:1000600016C100000C9402930C94329310C100004E
:100070000EC100000CC100000AC1000008C1000050
:1000800006C1000004C1000002C1000000C1000060
:100090000C94A9930C94D993FAC000000C94518449
:1000A000F6C00000F4C00000F2C00000F0C0000084
:1000B000EEC00000ECC00000EAC00000E8C0000094
:1000C000E6C00000E4C00000E2C000000C945094C0
:1000D0000C948094DCC000000C94F7940C94279549
:1000E000D6C0000005A84CCDB2D44EB93836A9020E
:1000F0000C50B9918688083CA6AAAA2ABE00000026
:10010000803F00002100240027002A002D0030003D
:10011000330001010000040107010A010000220070
:10012000250028002B002E003100340002010000C1
:10013000050108010B010000200023002600290012
:100140002C002F003200000100000301060109010C
:1001500005050505070508080808020202020A0A43
:100160000808040404040101010101010101030361
:10017000030303030303040707070C0C0C0C0C0C0C
:100180000C0C0202020206060606060606060B0B09
:100190000B0B0B0B0B0B010210202008081020404A
:1001A000102040800201020108040201010204083B
:1001B00010204080804020100804020180040201C9
:1001C0008040201008040201080402010102040812
:1001D00010204080010204081020408000000A0B1B
:1001E00002090C0D0E0807030401000000000000C6
:1001F00000000000000000000000000000000000FF
:1002000000000000000000001211100000000000BB
:1002100000000000000000000000000000000000DE
:1002200000006C7F9D934494EB94949511241FBE21
:10023000CFEFD1E2DEBFCDBF00E00CBF13E0A0E006
:10024000B2E0E2E3FEE201E00BBF02C007900D92D4
:10025000AA3DB107D9F72DE0AAEDB3E001C01D9288
:10026000AC3AB207E1F711E0C6E1D1E000E006C028
:1002700021970109802FFE010E942996C131D107E3
:1002800080E00807A9F70E945A780C941797B8CE17
:10029000CF93DF93CDB7DEB76C970FB6F894DEBF80
:1002A0000FBECDBF898F6A8F5C8F4B8F1A821982E8
:1002B00080910604282F30E04BE0429FC001439F0D
:1002C000900D112486529C4F9C838B838B819C8143
:1002D000FC0110821182128213828B819C8121E0A9
:1002E000FC012287898D882F90E08A569E4F9E833D
:1002F0008D838D819E81FC0184918F838B819C8174
:100300002F81FC012683898D882F90E0805B9E4F92
:100310009987888788859985FC0184918A878A8551
:10032000882F90E0880F991F8A5C9E4F9C878B874F
:100330008B859C85FC0125913491CF013E872D87CB
:100340009C878B878D859E859C018B819C81FC0180
:10035000358324838A8D882F90E08A569E4F988B10
:100360008F878F859889FC018491898B8B819C81F3
:100370002989FC0121878A8D882F90E0805B9E4F20
:100380009B8B8A8B8A899B89FC0184918C8B8C89BD
:10039000882F90E0880F991F8A5C9E4F9E8B8D8BD3
:1003A0008D899E89FC0125913491CF01388F2F8B47
:1003B0009E8B8D8B8F89988D9C018B819C81FC01FC
:1003C0003087278360E0898D0E94DB8C60E08A8D16
:1003D0000E94DB8C80910604882F90E0813091058B
:1003E00009F449C0823091051CF4892B49F0F4C00E
:1003F0008230910509F47AC0039709F4B2C0ECC0C9
:10040000898D823099F0898D833071F0898D8231A8
:1004100048F0898D863130F497E1898DF92FF81BEA
:100420008F2F05C08FEF03C081E001C080E041E065
:1004300050E06BE573E00E9497868A8D823099F0D8
:100440008A8D833071F08A8D823148F08A8D8631B1
:1004500030F497E18A8D292F281B822F05C08FEF5A
:1004600003C081E001C080E041E050E066E673E057
:100470000E949786B1C0898D823099F0898D833032
:1004800071F0898D823148F0898D863130F497E1A1
:10049000898DE92FE81B8E2F05C08FEF03C081E007
:1004A00001C080E041E050E061E773E00E94978680
:1004B0008A8D823099F08A8D833071F08A8D8231F5
:1004C00048F08A8D863130F497E18A8DF92FF81B38
:1004D0008F2F05C08FEF03C081E001C080E041E0B5
:1004E00050E06CE773E00E94978676C0898D823079
:1004F00099F0898D833071F0898D823148F0898D32
:10050000863130F497E1898D292F281B822F05C071
:100510008FEF03C081E001C080E041E050E067E878
:1005200073E00E9497868A8D823099F08A8D83309D
:1005300071F08A8D823148F08A8D863130F497E1EE
:100540008A8DE92FE81B8E2F05C08FEF03C081E055
:1005500001C080E041E050E062E973E00E949786CC
:100560003BC0898D823099F0898D833071F0898DFF
:10057000823148F0898D863130F497E1898DF92FE9
:10058000F81B8F2F05C08FEF03C081E001C080E012
:1005900041E050E06DE973E00E9497868A8D8230D9
:1005A00099F08A8D833071F08A8D823148F08A8D7E
:1005B000863130F497E18A8D292F281B822F05C0C0
:1005C0008FEF03C081E001C080E041E050E068EAC5
:1005D00073E00E94978600002091060481E0820F5C
:1005E000809306048B8D9C8DFC01208389819A81E8
:1005F0006C960FB6F894DEBF0FBECDBFDF91CF91E2
:100600000895CF93DF9300D01F921F92CDB7DEB72E
:100610008B837D836C838B81282F30E04BE0429F5E
:10062000C001439F900D112486529C4F9A83898369
:1006300089819A81FC0180819181A281B3812C8181
:100640003D81F90180839183A283B38380E090E0B0
:100650000F900F900F900F900F90DF91CF91089512
:10066000CF93DF9300D0CDB7DEB78B838B81282F5C
:1006700030E04BE0429FC001439F900D1124865211
:100680009C4F9A83898389819A81FC01108211820F
:100690001282138280E090E00F900F900F90DF9114
:1006A000CF910895CF93DF93CDB7DEB780E090E090
:1006B000DF91CF910895CF93DF93CDB7DEB78AED69
:1006C00093E051D00000DF91CF910895CF93DF9355
:1006D000CDB7DEB78AED93E0D5D00000DF91CF91A2
:1006E0000895CF93DF93CDB7DEB785EE93E03BD08F
:1006F0000000DF91CF910895CF93DF93CDB7DEB7A0
:1007000085EE93E0BFD00000DF91CF910895CF93A5
:10071000DF93CDB7DEB780EF93E025D00000DF9107
:10072000CF910895CF93DF93CDB7DEB780EF93E0FD
:10073000A9D00000DF91CF910895CF93DF93CDB77B
:10074000DEB78BEF93E00FD00000DF91CF910895DB
:10075000CF93DF93CDB7DEB78BEF93E093D000005C
:10076000DF91CF910895CF93DF9300D000D0CDB724
:10077000DEB79E838D838D819E81FC01878190856C
:10078000FC0120818D819E81FC018185922F98231F
:1007900081E0992309F480E0882F90E09A8389838F
:1007A0008D819E81FC0184819581FC0120818D8158
:1007B0009E81FC018681922F982381E0992309F480
:1007C00080E0882F90E09C838B838B819C810197B4
:1007D00041F589819A81892B91F48D819E81FC015B
:1007E00080819181A281B3810196A11DB11D2D81CE
:1007F0003E81F90180839183A283B38339C08D81C7
:100800009E81FC0180819181A281B3810197A10920
:10081000B1092D813E81F90180839183A283B38345
:1008200027C089819A81019791F48D819E81FC0175
:1008300080819181A281B3810196A11DB11D2D817D
:100840003E81F90180839183A283B38311C08D819E
:100850009E81FC0180819181A281B3810197A109D0
:10086000B1092D813E81F90180839183A283B383F5
:10087000000026960FB6F894DEBF0FBECDBFDF9105
:10088000CF910895CF93DF9300D000D0CDB7DEB7DE
:100890009E838D838D819E81FC0184819581FC01E5
:1008A00020818D819E81FC018681922F982381E099
:1008B000992309F480E0882F90E09A8389838D81C1
:1008C0009E81FC0187819085FC0120818D819E8124
:1008D000FC018185922F982381E0992309F480E01F
:1008E000882F90E09C838B838B819C81019741F5BD
:1008F00089819A81019791F48D819E81FC0180818B
:100900009181A281B3810196A11DB11D2D813E81EE
:10091000F90180839183A283B38339C08D819E8145
:10092000FC0180819181A281B3810197A109B10964
:100930002D813E81F90180839183A283B38327C0F7
:1009400089819A81892B91F48D819E81FC0180811E
:100950009181A281B3810196A11DB11D2D813E819E
:10096000F90180839183A283B38311C08D819E811D
:10097000FC0180819181A281B3810197A109B10914
:100980002D813E81F90180839183A283B38300008E
:1009900026960FB6F894DEBF0FBECDBFDF91CF9184
:1009A0000895CF93DF931F921F92CDB7DEB789834F
:1009B0006A838A81882329F460E089810E94DB8C24
:1009C0000CC08A81813029F461E089810E94DB8C2E
:1009D00004C062E089810E94DB8C00000F900F90C0
:1009E000DF91CF910895CF93DF931F921F92CDB7E0
:1009F000DEB789836A838A81882329F061E089814F
:100A00000E947A8E04C060E089810E947A8E000084
:100A10000F900F90DF91CF910895EF92FF920F9377
:100A20001F93CF93DF93CDB7DEB72C970FB6F89413
:100A3000DEBF0FBECDBF69837A838B839C832D83FA
:100A40003E834F835887E986FA860B871C87898106
:100A500061E00E94DB8C89819A8101969C018981E9
:100A60009A81AB81BC81A901BC01CD01F8D020E005
:100A700030E0A90169857A858B859C850E945E7B23
:100A80001816BCF469857A858B859C850E94097A45
:100A9000DC01CB018C016D817E818F8198850E9464
:100AA000097ADC01CB019C0189819A81A801B901F5
:100AB00055D189819A8101962C960FB6F894DEBFA4
:100AC0000FBECDBFDF91CF911F910F91FF90EF909F
:100AD0000895CF93DF9300D000D01F92CDB7DEB73B
:100AE0009B838A834C835D836E837F83CE010296D2
:100AF000FC0180818823B9F1CE010296FC0180813E
:100B00008150898320E030E0A9016C817D818E8154
:100B10009F810E9495798823D4F48C819D81AE8138
:100B2000BF81B0588C839D83AE83BF836C817D81F0
:100B30008E819F810E94097A9B01AC018981882F57
:100B400090E0A0E0B0E0BC01CD01E7D00CC06C812A
:100B50007D818E819F810E94047ADC01CB01BC01E2
:100B600089810E94618B000027960FB6F894DEBF42
:100B70000FBECDBFDF91CF910895CF93DF9300D00B
:100B8000CDB7DEB79B838A83CE010296FC018081BC
:100B9000882389F01982CE010296FC018081815060
:100BA00089838981882F90E0A0E0B0E040E050E0A8
:100BB000BC01CD0154D000000F900F900F90DF9139
:100BC000CF910895CF93DF9300D000D000D0CDB760
:100BD000DEB76E837F83888799871C821B821A8287
:100BE00019821D828E819F81A885B985689412F82B
:100BF000B695A795979587951694D1F79C838B8387
:100C00008E8187708D838B819C81895F9B4FFC01D6
:100C100040818D81282F30E081E090E002C0880F74
:100C2000991F2A95E2F78423882F90E09A8389837D
:100C300089819A81892B31F08E819F8101969A83D7
:100C4000898302C01A82198289819A8129960FB6F6
:100C5000F894DEBF0FBECDBFDF91CF910895CF9343
:100C6000DF9300D000D000D01F92CDB7DEB76D83E8
:100C70007E838F8398875A8749871A8219821B82BD
:100C80001C828D819E81AF81B885689412F8B695DB
:100C9000A795979587951694D1F79A8389838D8127
:100CA00087708B838B81282F30E081E090E002C039
:100CB000880F991F2A95E2F78C8389859A85892B5D
:100CC00099F48C8180958C8389819A81895F9B4F6F
:100CD000FC0190818C81292F282389819A81895F49
:100CE0009B4FFC0120830FC089819A81895F9B4FB4
:100CF000FC0190818C81292F282B89819A81895F21
:100D00009B4FFC01208300002A960FB6F894DEBFAB
:100D10000FBECDBFDF91CF910895CF93DF9300D069
:100D200000D01F921F92CDB7DEB769837A838B8381
:100D30009C832D833E834F8358878D819E8129819B
:100D4000BC01822F0E94618B000028960FB6F89498
:100D5000DEBF0FBECDBFDF91CF910895CF93DF935C
:100D600000D000D000D0CDB7DEB79D838C837F83C9
:100D70006E83598748878C819D8184529E4F9A83C8
:100D8000898389819A81FC0184918B838B81882F4F
:100D900090E0092E000CAA0BBB0B0197A109B10929
:100DA00082319105A105B10508F051C2FC018827E7
:100DB000E352F94F8F4F0C942996EF06F90603077B
:100DC0002D075707270981079707AD07D7070108A0
:100DD0002B0855087F082709A908D308FD0884E4D3
:100DE00090E0FC01208184E490E02068FC012083F5
:100DF0002EC284E490E0FC01208184E490E0206233
:100E0000FC01208324C280E890E0FC018081282F2F
:100E10002C7F80E890E02260FC01208381E890E054
:100E2000FC018081982F907E8E81292F282B81E8CC
:100E300090E02061FC01208386E890E028853985D8
:100E4000FC013183208380E890E0FC01208180E870
:100E500090E02068FC012083FAC180E890E0FC016A
:100E60008081282F2C7F80E890E02260FC01208385
:100E700081E890E0FC018081982F907E8E81292F5F
:100E8000282B81E890E02061FC01208386E890E037
:100E900028853985FC013183208380E890E0FC01BE
:100EA000208180E890E02062FC012083D0C180E8AE
:100EB00090E0FC018081282F2C7F80E890E0226068
:100EC000FC01208381E890E0FC018081982F907ED6
:100ED0008E81292F282B81E890E02061FC0120835E
:100EE00086E890E028853985FC013183208380E8FD
:100EF00090E0FC01208180E890E02860FC012083E4
:100F0000A6C180EB90E0FC01208180EB90E020689E
:100F1000FC01208381EB90E0FC018081382F387F39
:100F20002E8181EB90E0232BFC01208390C180EB8C
:100F300090E0FC01208180EB90E02062FC012083A6
:100F400081EB90E0FC018081382F387F2E8181EB8E
:100F500090E0232BFC0120837AC180E990E0FC0122
:100F60008081282F2C7F80E990E02260FC01208383
:100F700081E990E0FC018081982F907E8E81292F5D
:100F8000282B81E990E02061FC01208386E990E034
:100F900028853985FC013183208380E990E0FC01BC
:100FA000208180E990E02068FC01208350C180E925
:100FB00090E0FC018081282F2C7F80E990E0226066
:100FC000FC01208381E990E0FC018081982F907ED4
:100FD0008E81292F282B81E990E02061FC0120835C
:100FE00086E990E028853985FC013183208380E9FA
:100FF00090E0FC01208180E990E02062FC012083E8
:1010000026C180E990E0FC018081282F2C7F80E9B7
:1010100090E02260FC01208381E990E0FC01808166
:10102000982F907E8E81292F282B81E990E02061D6
:10103000FC01208386E990E028853985FC01318315
:10104000208380E990E0FC01208180E990E0286025
:10105000FC012083FCC080EA90E0FC018081282F05
:101060002C7F80EA90E02260FC01208381EA90E0FE
:10107000FC018081982F907E8E81292F282B81EA78
:1010800090E02061FC01208386EA90E02885398584
:10109000FC013183208380EA90E0FC01208180EA1A
:1010A00090E02068FC012083D2C080EA90E0FC013F
:1010B0008081282F2C7F80EA90E02260FC01208331
:1010C00081EA90E0FC018081982F907E8E81292F0B
:1010D000282B81EA90E02061FC01208386EA90E0E1
:1010E00028853985FC013183208380EA90E0FC016A
:1010F000208180EA90E02062FC012083A8C080EA81
:1011000090E0FC018081282F2C7F80EA90E0226013
:10111000FC01208381EA90E0FC018081982F907E81
:101120008E81292F282B81EA90E02061FC01208309
:1011300086EA90E028853985FC013183208380EAA6
:1011400090E0FC01208180EA90E02860FC0120838F
:101150007EC080E291E0FC018081282F2C7F80E21C
:1011600091E02260FC01208381E291E0FC0180811A
:10117000982F907E8E81292F282B81E291E020618B
:10118000FC01208386E291E028853985FC013183CA
:10119000208380E291E0FC01208180E291E02068E0
:1011A000FC01208354C080E291E0FC018081282F63
:1011B0002C7F80E291E02260FC01208381E291E0BB
:1011C000FC018081982F907E8E81292F282B81E22F
:1011D00091E02061FC01208386E291E02885398539
:1011E000FC013183208380E291E0FC01208180E2D8
:1011F00091E02062FC0120832AC080E291E0FC01A2
:101200008081282F2C7F80E291E02260FC012083E6
:1012100081E291E0FC018081982F907E8E81292FC0
:10122000282B81E291E02061FC01208386E291E09D
:1012300028853985FC013183208380E291E0FC011F
:10124000208180E291E02860FC01208300008C81F5
:1012500060E00E947A8E000029960FB6F894DEBFF7
:101260000FBECDBFDF91CF910895CF93DF9300D014
:1012700000D0CDB7DEB769837A838B839C835E838E
:101280004D8389819A81AB81BC81892B8A2B8B2BE1
:1012900021F589819A81880F991F880F991F8050A5
:1012A0009E4FFC0180818823C1F489819A81880F37
:1012B000991F880F991F8E5F9D4FFC01808191813E
:1012C0000E94CA7C89819A81880F991F880F991F73
:1012D00080509E4F21E0FC01208389819A81880FF4
:1012E000991F880F991F80509E4F26960FB6F8942D
:1012F000DEBF0FBECDBFDF91CF910895CF93DF93B7
:1013000000D000D0CDB7DEB79A8389834B835C834E
:101310006D837E8389819A81892BF9F089819A81F5
:10132000FC018181882341F480EA96E8A1E0B0E0E5
:101330008B839C83AD83BE8389819A81FC0122814A
:1013400033818B819C81AD81BE81AC01BD01C9011E
:101350000E94E77C80E090E002C088E090E0269662
:101360000FB6F894DEBF0FBECDBFDF91CF910895C9
:10137000CF92EF920F931F93CF93DF93CDB7DEB74A
:1013800062970FB6F894DEBF0FBECDBF98878F83EC
:101390007A8769875C874B870D871E872F87388BF5
:1013A000E98ACA8A8F819885892B09F49DC08F812B
:1013B0009885FC01828193813D852985432F622F89
:1013C0000E949E7D19821A821B821C828F819885C1
:1013D000FC01428153818F819885FC018281938138
:1013E000FC01808191810896FC0120813181CA0134
:1013F000F901199521E0892B09F420E0222309F451
:1014000065C08F819885FC01428153818F819885C9
:10141000FC0182819381FC01808191810896FC010D
:1014200020813181CA01F9011995892B79F029812F
:101430003A814B815C818D859E85AF85B88928175F
:1014400039074A075B0710F481E001C080E0882378
:1014500009F447C08F819885FC01428153818F81B7
:101460009885FC0182819381FC01808191810A969B
:10147000FC0120813181CA01F90119959E838D8378
:101480008D819E81019659F48B859C8544E050E0C6
:1014900060E070E00E94109788E090E027C08981AA
:1014A0009A81AB81BC819C01AD012F5F3F4F4F4FB3
:1014B0005F4F29833A834B835C839C018B859C859A
:1014C000820F931F2D81FC0120839BCF8B859C85F0
:1014D00044E050E060E070E00E94109788E090E007
:1014E00005C080E090E002C088E090E062960FB610
:1014F000F894DEBF0FBECDBFDF91CF911F910F914A
:10150000EF90CF900895CF92EF920F931F93CF93C8
:10151000DF93CDB7DEB72D970FB6F894DEBF0FBEC1
:10152000CDBF9B838A837D836C835F834E830887D3
:1015300019872A873B87EC86CD868A819B81892BF8
:1015400009F44FC019828A819B81DC0112968D912A
:101550009C912C81622F0E94B57D8A819B81DC0148
:101560001296ED91FC918A819B81DC0112968D91FE
:101570009C91DC018D919C910296DC012D913C9116
:10158000488559858E819F81BC01CF01F90119954C
:101590008C85882359F08A819B81DC0112968D917C
:1015A0009C9160E00E94CE7D898309C08A819B81E5
:1015B000FC018281938161E00E94CE7D89838981D3
:1015C000882319F480E090E00EC08981823019F000
:1015D0008981833019F484E090E005C088E090E0D0
:1015E00002C088E090E02D960FB6F894DEBF0FBEE3
:1015F000CDBFDF91CF911F910F91EF90CF900895C4
:10160000CF93DF931F921F92CDB7DEB79A83898362
:1016100000000F900F90DF91CF910895CF93DF934B
:1016200000D000D0CDB7DEB79C838B837E836D83E3
:101630001A82198289819A8126960FB6F894DEBFA4
:101640000FBECDBFDF91CF910895CF93DF9300D030
:1016500000D01F921F92CDB7DEB79E838D8378870F
:101660006F831C821B828D819E81892B19F48FEFE1
:101670009FEFB2C08F819885892B19F48FEF9FEF70
:10168000ABC08091A4029091A502A091A602B09156
:10169000A7028E3F9F4FAF4FBF4F61F48FEF9FEF79
:1016A000DC018093A4029093A502A093A602B093BC
:1016B000A7020FC08091A4029091A502A091A6025A
:1016C000B091A7022F813885F90180839183A2838D
:1016D000B3838091A4029091A502A091A602B0913B
:1016E000A7028D819E81FC0182819381FC01808112
:1016F0009181A281B3818093680590936905A0933D
:101700006A05B0936B058D819E81FC018281938176
:10171000FC0184819581A681B78180936C059093AB
:101720006D05A0936E05B0936F058D819E81FC01C0
:1017300082819381FC0180859185A285B385809308
:10174000700590937105A0937205B09373058D8118
:101750009E81FC0182819381FC0184859585A6850B
:10176000B7858093740590937505A0937605B09323
:101770007705109278051092790510927A051092EB
:101780007B050E949A3B1A8219821A82198210C024
:1017900089819A81880F991F805F9B4F25EC3BE3DD
:1017A000FC013183208389819A8101969A83898300
:1017B00089819A81029760F30E94A1369C838B8372
:1017C0008B819C81892B31F481E090E090936705B7
:1017D000809366058B819C8128960FB6F894DEBFB6
:1017E0000FBECDBFDF91CF910895CF93DF93CDB7DB
:1017F000DEB72C970FB6F894DEBF0FBECDBF69875A
:101800007A878B879C871A8219821B821C821D8291
:101810001E821F829091640581E0992309F080E087
:10182000888782E090E090936705809366058985BC
:101830009A85AB85BC85892B8A2B8B2B59F480919B
:101840006405882339F480916505882319F481E0C3
:1018500090E002C080E090E08F8331C06AE070E0E9
:1018600080E090E00E941D8A8B819C81AD81BE81C9
:10187000805F984DAF4FBF4F8B839C83AD83BE83FA
:1018800089859A85AB85BC858F3F9F4FAF4FBF4FF2
:1018900081F02B813C814D815E8189859A85AB8564
:1018A000BC8582179307A407B50718F481E090E080
:1018B00002C080E090E08F8380E00E94E936809152
:1018C0006405882339F480916505882319F48F8194
:1018D000882321F283E090E090936705809366056A
:1018E0008F81882321F08CE99FEF9A8389838885F3
:1018F000882311F00E94C13C89819A812C960FB6F1
:10190000F894DEBF0FBECDBFDF91CF910895CF9386
:10191000DF93CDB7DEB761970FB6F894DEBF0FBE89
:10192000CDBF9D878C874E875F87688B798B1A82A6
:10193000198281E08B838C859D858F3F910521F0F5
:1019400018F08FEF9FEF63C0809166059091670557
:10195000039731F08091660590916705019731F406
:1019600084E090E090936705809366058C859D8563
:10197000029708F58C859D85880F991F805F9B4F86
:10198000FC0180819181892BB1F00E947B419D8374
:101990008C838C819D81029771F48C859D85880F45
:1019A000991F805F9B4FFC01208131818C859D8533
:1019B000F90119958B838C859D859F838E832C855A
:1019C0003D858E859F85A889B989A901BC01CD0176
:1019D0000E947E36DC01CB0188879987AA87BB8766
:1019E0008B81882371F088859985AA85BB852E8196
:1019F0003F81AC01BD01C9010E944B419A8389839B
:101A000004C08E819F810E94BD4189819A81619627
:101A10000FB6F894DEBF0FBECDBFDF91CF91089512
:101A2000CF93DF931F921F92CDB7DEB71A82198230
:101A300080E00E94E9369A83898389819A810F9098
:101A40000F90DF91CF910895CF93DF931F921F9254
:101A5000CDB7DEB71A82198286E090E090936705D1
:101A6000809366050E9479379A83898344E050E029
:101A700060E070E080E194E00E9410970E94533C87
:101A8000109267051092660589819A810F900F90D8
:101A9000DF91CF910895CF93DF93CDB7DEB78091DB
:101AA0006505DF91CF910895CF93DF93CDB7DEB772
:101AB00080917C05DF91CF910895CF93DF9300D083
:101AC0001F92CDB7DEB769837A838B839C8389812C
:101AD0009A81AB81BC818093A4029093A502A093CC
:101AE000A602B093A70280E090E00F900F900F90B5
:101AF0000F90DF91CF9108952F923F924F925F9276
:101B00006F927F928F929F92AF92BF92CF92DF920D
:101B1000EF92FF920F931F93CF93DF93CDB7DEB772
:101B20006E970FB6F894DEBF0FBECDBF9A8F898F28
:101B30007C8F6B8F5E8F4D8F19821A821B821C8265
:101B40008D8D9E8D9E878D878B8D9C8D8150904E27
:101B5000880F991F880F991F880F991F298D3A8D1B
:101B6000F901E80FF91F208131814281538164819D
:101B7000758186819781A22EB32EC42ED52EE62E96
:101B8000F72E082F192F2A2D3B2D4C2D5D2D6E2D54
:101B90007F2D802F912FA0E00E94E8960CF0C6C008
:101BA00081E08D831E821F82188619861A861B8605
:101BB0001C86188A1F86B1C08F859889880F991F47
:101BC000880F991F880F991F298D3A8DF901E80F09
:101BD000F91F208131814281538164817581868121
:101BE0009781E22FE095E98BE32FE095EA8BE42FD4
:101BF000E095EB8BE52FE095EC8BE62FE095ED8BF8
:101C0000E72FE095EE8BE82FE095EF8B892F8095FD
:101C1000888F2D813E814F81588569857A858B8596
:101C20009C85A988BA88CB88DC88ED88FE880F89D6
:101C3000188D0E94C196A22EB32EC42ED52EE62E4C
:101C4000F72E082F192FAD82BE82CF82D886E98663
:101C5000FA860B871C872D813E814F8158856985C7
:101C60007A858B859C850E94727A8B019C018D857B
:101C70009E85AC01C901B8010E94647BDC01CB01E7
:101C80009C01AD0169817A818B819C810E943079B0
:101C9000DC01CB0189839A83AB83BC83E1E0AD8017
:101CA000BE80CF80D884E984FA840B851C8529887E
:101CB0003A884B885C886D887E888F88988C2A2D1E
:101CC0003B2D4C2D5D2D6E2D7F2D802F912FA22C25
:101CD000B32CC42CD52CE62CF72C082D192D0E94E2
:101CE000DF9608F0E0E02E2F30E040E050E060E0CA
:101CF00070E0CB012D833E834F83588769877A87B5
:101D00008B879C878D859E85805C9F4F9E878D8766
:101D10008F8598890196988B8F872F8538898B8D31
:101D20009C8D281739070CF447CF55C0188A1F8699
:101D30004AC08F859889880F991F880F991F880F2F
:101D4000991F298D3A8D820F931FFC01A080FC0101
:101D5000B180FC01C280FC01D380FC01E480FC0165
:101D6000F580FC010681FC0117812A2D3B2D4C2DAD
:101D70005D2D6E2D7F2D802F912F0E94727A8B0109
:101D80009C018D859E85AC01C901B8010E94647BD0
:101D9000DC01CB019C01AD0169817A818B819C8141
:101DA0000E943179DC01CB0189839A83AB83BC83A8
:101DB0008D859E85805C9F4F9E878D878F859889B6
:101DC0000196988B8F872F8538898B8D9C8D28174E
:101DD00039070CF4AECF89819A81AB81BC81BC01FB
:101DE000CD016E960FB6F894DEBF0FBECDBFDF916A
:101DF000CF911F910F91FF90EF90DF90CF90BF9008
:101E0000AF909F908F907F906F905F904F903F909A
:101E10002F9008952F923F924F925F926F927F92F0
:101E20008F929F92AF92BF92CF92DF92EF92FF92EA
:101E30000F931F93CF93DF93CDB7DEB7C656D1096B
:101E40000FB6F894DEBF0FBECDBFFE01E55AFF4FBF
:101E500091838083CE01835A9F4FFC0171836083FD
:101E6000CE01815A9F4FFC0151834083CE018F598F
:101E70009F4FFC0131832083CE018D599F4FFC0180
:101E800011830083CE018B599F4FFC01F182E082C8
:101E9000CE01835A9F4FFC01808191818150904EE9
:101EA000880F991F880F991F880F991F9E01255A27
:101EB0003F4FF90120813181F901E80FF91F20819D
:101EC0003181428153816481758186819781A22EFF
:101ED000B32EC42ED52EE62EF72E082F192F2A2D1D
:101EE0003B2D4C2D5D2D6E2D7F2D802F912F0FE3DF
:101EF0000E94A696A22EB32EC42ED52EE62EF72E25
:101F0000082F192F8A2D8FA3CE018F599F4FFC01C7
:101F1000808191818150904E880F991F880F991F61
:101F2000880F991F9E01215A3F4FF901208131816D
:101F3000F901E80FF91F20813181428153816481C9
:101F4000758186819781A22EB32EC42ED52EE62EC2
:101F5000F72E082F192F2A2D3B2D4C2D5D2D6E2D80
:101F60007F2D802F912F0FE30E94A696A22EB32ED5
:101F7000C42ED52EE62EF72E082F192F8A2D88A7CE
:101F800081E089871A861B861C861D861E861F8611
:101F9000188A1EA21DA225C08DA19EA1880F991F7F
:101FA000880F991F880F991F9E012D593F4FF901E6
:101FB00020813181820F931FFC011082FC0111826C
:101FC000FC011282FC011382FC011482FC011582C7
:101FD000FC011682FC0117828DA19EA101969EA391
:101FE0008DA3CE018B599F4F2DA13EA1FC01808175
:101FF00091812817390784F21AA219A28FC5198274
:102000001A821B821C821D821E821F82188689A151
:102010009AA1880F991F880F991F880F991F9E01F9
:10202000255A3F4FF90120813181820F931FFC0116
:102030002081298FFC0121812A8FFC0122812B8F95
:10204000FC0123812C8FFC0124812D8FFC01258133
:102050002E8FFC0126812F8FFC01878188A38FA101
:10206000882309F461C029853A854B855C856D8597
:102070007E858F859889A98CBA8CCB8CDC8CED8C75
:10208000FE8C0F8D18A10E94D696A22EB32EC42EC0
:10209000D52EE62EF72E082F192F2A2D3B2D4C2D4D
:1020A0005D2D6E2D7F2D802F912FAFEF0E94CA9650
:1020B000298F3A8F4B8F5C8F6D8F7E8F8F8F98A378
:1020C000E1E0A98CBA8CCB8CDC8CED8CFE8C0F8D76
:1020D00018A129843A844B845C846D847E848F8427
:1020E00098882A2D3B2D4C2D5D2D6E2D7F2D802F18
:1020F000912FA22CB32CC42CD52CE62CF72C082D18
:10210000192D0E94DF9608F0E0E02E2F30E040E02D
:1021100050E060E070E0CB0129873A874B875C870D
:102120006D877E878F87988B298D3A8D4B8D5C8D3F
:102130006D8D7E8D8F8D98A100E20E94A696A22EB5
:10214000B32EC42ED52EE62EF72E082F192FA9AAAE
:10215000BAAACBAADCAAEDAAFEAA0FAB18AF898D4A
:102160008F7F89AF8A8D8F7F8AAF8B8D8F7F8BAF6B
:102170008C8D8F7F8CAF8D8D80708DAF8E8D8070AC
:102180008EAF8F8D80708FAF88A1282F2070CE01E9
:10219000805C9F4FFC01208381E0898B1A8A1B8A17
:1021A0001C8A1D8A1E8A1F8A188ECE018F5B9F4F44
:1021B0009E012B593F4FF9014081518129A13AA13C
:1021C000BA01621B730B9B01FC0131832083AE01BA
:1021D0004F5B5F4FCE018F599F4F9E012F5B3F4F4B
:1021E000F90120813181FC01808191812817390713
:1021F0000CF4C901FA019183808389A19AA19EA35D
:102200008DA31CA21BA246C48BA19CA1880F991F61
:10221000880F991F880F991F9E01215A3F4FF9017E
:1022200020813181820F931FFC012081298FFC01C5
:1022300021812A8FFC0122812B8FFC0123812C8F8D
:10224000FC0124812D8FFC0125812E8FFC0126812C
:102250002F8FFC01878188A388A5882309F461C09A
:1022600029893A894B895C896D897E898F89988D06
:10227000A98CBA8CCB8CDC8CED8CFE8C0F8D18A1CC
:102280000E94D696A22EB32EC42ED52EE62EF72E61
:10229000082F192F2A2D3B2D4C2D5D2D6E2D7F2DB6
:1022A000802F912FAFEF0E94CA96298F3A8F4B8FC4
:1022B0005C8F6D8F7E8F8F8F98A3E1E0A98CBA8C95
:1022C000CB8CDC8CED8CFE8C0F8D18A129883A8884
:1022D0004B885C886D887E888F88988C2A2D3B2D52
:1022E0004C2D5D2D6E2D7F2D802F912FA22CB32C88
:1022F000C42CD52CE62CF72C082D192D0E94DF9626
:1023000008F0E0E02E2F30E040E050E060E070E0C8
:10231000CB01298B3A8B4B8B5C8B6D8B7E8B8F8BA0
:10232000988FFE01ED5BFF4F298D3A8D4B8D5C8DB3
:102330006D8D7E8D8F8D98A100E20E94A696A22EB3
:10234000B32EC42ED52EE62EF72E082F192FA082DD
:10235000B182C282D382E482F58206831783898D9B
:102360008F7F898F8A8D8F7F8A8F8B8D8F7F8B8FC9
:102370008C8D8F7F8C8F8D8D80708D8F8E8D8070EA
:102380008E8F8F8D80708F8F88A1807088A34E0173
:10239000FBE48F0E911CA98CBA8CCB8CDC8CED8C61
:1023A000FE8C0F8D18A129A93AA94BA95CA96DA98A
:1023B0007EA98FA998AD0E943B96A22EB32EC42E63
:1023C000D52EE62EF72E082F192FF401A082F40146
:1023D000B182F401C282F401D382F401E482F401F7
:1023E000F582F4010683F40117834E01F3E58F0EA5
:1023F000911CCE018D5B9F4FFC01A080FC01B18040
:10240000FC01C280FC01D380FC01E480FC01F5806A
:10241000FC010681FC01178129AD3AAD4BAD5CADE5
:102420006DAD7EAD8FADFE01E05CFF4F90810E94EF
:102430003B96A22EB32EC42ED52EE62EF72E082FB5
:10244000192FF401A082F401B182F401C282F401D7
:10245000D382F401E482F401F582F4010683F401ED
:1024600017838DA19EA1880F991F880F991F880F30
:10247000991F9E012D593F4FF90120813181820F13
:10248000931FFC01A080FC01B180FC01C280FC0113
:10249000D380FC01E480FC01F580FC010681FC0195
:1024A00017812A2D3B2D4C2D5D2D6E2D7F2D802FDC
:1024B000912FA980BA80CB80DC80ED80FE800F81D7
:1024C00018850E94C196A22EB32EC42ED52EE62EBC
:1024D000F72E082F192FA9A6BAA6CBA6DCA6EDA623
:1024E000FEA60FA718ABE1E0A9A4BAA4CBA4DCA474
:1024F000EDA4FEA40FA518A929803A804B805C802A
:102500006D807E808F8098842A2D3B2D4C2D5D2DF3
:102510006E2D7F2D802F912FA22CB32CC42CD52C67
:10252000E62CF72C082D192D0E94DF9608F0E0E02C
:102530002E2F30E040E050E060E070E0CB012983D6
:102540003A834B835C836D837E838F839887A9ACAA
:10255000BAACCBACDCACEDACFEAC0FADCE01805C6C
:102560009F4FFC011081298D3A8D4B8D5C8D6D8DB7
:102570007E8D8F8D98A10E943B96A22EB32EC42EE5
:10258000D52EE62EF72E082F192FA98EBA8ECB8EB8
:10259000DC8EED8EFE8E0F8F18A329A53AA54BA5D4
:1025A0005CA56DA57EA58FA598A9A98CBA8CCB8CAE
:1025B000DC8CED8CFE8C0F8D18A10E94C196A22E92
:1025C000B32EC42ED52EE62EF72E082F192FA9A62E
:1025D000BAA6CBA6DCA6EDA6FEA60FA718ABE1E037
:1025E000A9A4BAA4CBA4DCA4EDA4FEA40FA518A9A9
:1025F000298C3A8C4B8C5C8C6D8C7E8C8F8C98A04B
:102600002A2D3B2D4C2D5D2D6E2D7F2D802F912F52
:10261000A22CB32CC42CD52CE62CF72C082D192D6C
:102620000E94DF9608F0E0E0AE2EB12CC12CD12C38
:10263000E12CF12C87012A2D3B2D4C2D5D2D6E2D8B
:102640007F2D802F912FA980BA80CB80DC80ED80F8
:10265000FE800F8118850E94C196A22EB32EC42E33
:10266000D52EE62EF72E082F192FA982BA82CB82FB
:10267000DC82ED82FE820F831887FE01E55BFF4F4F
:102680002081318142815381648175818681978166
:1026900000E20E948B96A22EB32EC42ED52EE62EDB
:1026A000F72E082F192FA98EBA8ECB8EDC8EED8EC9
:1026B000FE8E0F8F18A329A53AA54BA55CA56DA585
:1026C0007EA58FA598A9A98CBA8CCB8CDC8CED8CBF
:1026D000FE8C0F8D18A10E94C196A22EB32EC42E7F
:1026E000D52EE62EF72E082F192FA9A6BAA6CBA60F
:1026F000DCA6EDA6FEA60FA718ABE1E0A9A4BAA43C
:10270000CBA4DCA4EDA4FEA40FA518A9298C3A8CB7
:102710004B8C5C8C6D8C7E8C8F8C98A02A2D3B2DE5
:102720004C2D5D2D6E2D7F2D802F912FA22CB32C43
:10273000C42CD52CE62CF72C082D192D0E94DF96E1
:1027400008F0E0E0AE2EB12CC12CD12CE12CF12C04
:1027500087012A2D3B2D4C2D5D2D6E2D7F2D802F39
:10276000912FA980BA80CB80DC80ED80FE800F8124
:1027700018850E94C196A22EB32EC42ED52EE62E09
:10278000F72E082F192FA982BA82CB82DC82ED8224
:10279000FE820F831887FE01ED5AFF4F20813181A1
:1027A00042815381648175818681978100E20E9414
:1027B0008B96A22EB32EC42ED52EE62EF72E082FE2
:1027C000192FA98EBA8ECB8EDC8EED8EFE8E0F8FDA
:1027D00018A329A53AA54BA55CA56DA57EA58FA537
:1027E00098A9A98CBA8CCB8CDC8CED8CFE8C0F8DCF
:1027F00018A10E94C196A22EB32EC42ED52EE62E6D
:10280000F72E082F192FA9A6BAA6CBA6DCA6EDA6EF
:10281000FEA60FA718ABE1E0A9A4BAA4CBA4DCA440
:10282000EDA4FEA40FA518A9298C3A8C4B8C5C8CC6
:102830006D8C7E8C8F8C98A02A2D3B2D4C2D5D2D80
:102840006E2D7F2D802F912FA22CB32CC42CD52C34
:10285000E62CF72C082D192D0E94DF9608F0E0E0F9
:10286000AE2EB12CC12CD12CE12CF12C87012A2DBC
:102870003B2D4C2D5D2D6E2D7F2D802F912FA9800E
:10288000BA80CB80DC80ED80FE800F8118850E94AD
:10289000C196A22EB32EC42ED52EE62EF72E082FCB
:1028A000192FA982BA82CB82DC82ED82FE820F834D
:1028B00018878DA19EA1880F991F880F991F880FD7
:1028C000991F9E012D593F4FF90120813181820FBF
:1028D000931F29A5FC0120832AA5FC0121832BA598
:1028E000FC0122832CA5FC0123832DA5FC0124835C
:1028F0002EA5FC0125832FA5FC01268328A9FC0118
:102900002783FE01E55BFF4F2081318142815381A6
:10291000648175818681978100E20E94A696A22E2D
:10292000B32EC42ED52EE62EF72E082F192F2A2DC2
:102930003B2D4C2D5D2D6E2D7F2D802F912FA9804D
:10294000BA80CB80DC80ED80FE800F8118850E94EC
:10295000C196A22EB32EC42ED52EE62EF72E082F0A
:10296000192FA982BA82CB82DC82ED82FE820F838C
:102970001887FE01ED5AFF4F20813181428153813A
:10298000648175818681978100E20E94A696A22EBD
:10299000B32EC42ED52EE62EF72E082F192F2A2D52
:1029A0003B2D4C2D5D2D6E2D7F2D802F912FA980DD
:1029B000BA80CB80DC80ED80FE800F8118850E947C
:1029C000C196A22EB32EC42ED52EE62EF72E082F9A
:1029D000192FA982BA82CB82DC82ED82FE820F831C
:1029E0001887CE018D5B9F4FFC01A080FC01B18058
:1029F000FC01C280FC01D380FC01E480FC01F58075
:102A0000FC010681FC01178129A93AA94BA95CA9FF
:102A10006DA97EA98FA998AD0E943B96222E332ED8
:102A2000442E552E662E772E882E992EA22CB32C4E
:102A3000C42CD52CE62CF72C082D192D2A2D3B2D36
:102A40004C2D5D2D6E2D7F2D802F912FA980BA806A
:102A5000CB80DC80ED80FE800F8118850E94C196BE
:102A6000A22EB32EC42ED52EE62EF72E082F192F08
:102A7000A982BA82CB82DC82ED82FE820F83188724
:102A80008DA19EA101969EA38DA38BA19CA10196D1
:102A90009CA38BA3CE018F5B9F4F2BA13CA1FC017C
:102AA00080819181281739070CF4AECBCE018B5968
:102AB0009F4F2DA13EA1FC018081918128173907EC
:102AC00044F58DA19EA1880F991F880F991F880F2B
:102AD000991F9E012D593F4FF90120813181820FAD
:102AE000931F2981FC0120832A81FC0121832B81F2
:102AF000FC0122832C81FC0123832D81FC01248392
:102B00002E81FC0125832F81FC0126832885FC0171
:102B1000278389A19AA101969AA389A3CE01835AFA
:102B20009F4F29A13AA1FC01808191812817390783
:102B30000CF465CA9FA188A5981709F4C6C081E066
:102B400089831A821B821C821D821E821F82188624
:102B50001EA21DA2AEC08DA19EA1880F991F880F35
:102B6000991F880F991F9E012D593F4FF901208110
:102B70003181820F931FFC012080FC013180FC0118
:102B80004280FC015380FC016480FC017580FC01E3
:102B90008680FC01978029813A814B815C816D811F
:102BA0007E818F819885A22CB32CC42CD52CE62C49
:102BB000F72C082D192D0E94D696A22EB32EC42EC6
:102BC000D52EE62EF72E082F192F2A2D3B2D4C2D12
:102BD0005D2D6E2D7F2D802F912FAFEF0E94CA9615
:102BE00029A73AA74BA75CA76DA77EA78FA798AB8D
:102BF0008DA19EA1880F991F880F991F880F991F7B
:102C00009E012D593F4FF90120813181820F931F81
:102C100029A5FC0120832AA5FC0121832BA5FC0109
:102C200022832CA5FC0123832DA5FC0124832EA542
:102C3000FC0125832FA5FC01268328A9FC012783FD
:102C4000E1E0A9A4BAA4CBA4DCA4EDA4FEA40FA542
:102C500018A929803A804B805C806D807E808F80AF
:102C600098842A2D3B2D4C2D5D2D6E2D7F2D802F90
:102C7000912FA22CB32CC42CD52CE62CF72C082D8C
:102C8000192D0E94DF9608F0E0E02E2F30E040E0A2
:102C900050E060E070E0CB0129833A834B835C8392
:102CA0006D837E838F8398878DA19EA101969EA3BD
:102CB0008DA3CE018B599F4F2DA13EA1FC01808198
:102CC0009181281739070CF446CF0000CA59DF4F0D
:102CD0000FB6F894DEBF0FBECDBFDF91CF911F912D
:102CE0000F91FF90EF90DF90CF90BF90AF909F90AB
:102CF0008F907F906F905F904F903F902F900895AE
:102D00008F929F92AF92BF92CF92DF92EF92FF92FB
:102D10000F931F93CF93DF93CDB7DEB7AA970FB66C
:102D2000F894DEBF0FBECDBF9AA789A789A59AA543
:102D3000FC0184AD95ADFC0180819181FC01808115
:102D40009181A281B3818B839C83AD83BE8389A54E
:102D50009AA5FC0184859585A685B7858F8398877C
:102D6000A987BA8789A59AA5FC0180899189FC0168
:102D700080819181A281B3818B879C87AD87BE873B
:102D800089A59AA5805C9F4FFC0180819181FC01FF
:102D900080819181988B8F8789A59AA5FC01848178
:102DA00095819A8B898B89899A89FC01808191818F
:102DB0009C8B8B8B89899A89FC01828193819E8B64
:102DC0008D8B89899A89FC0184819581988F8F8B5D
:102DD00089899A89FC01868197819A8F898F85E0FC
:102DE00090E09C8F8B8F89A59AA5FC0182819381AD
:102DF000FC01118210828B8D9C8DAC01440F551FFC
:102E0000440F551F2F8538898B899C89B9010E94F1
:102E1000079789A59AA5FC0182AD93AD2D893E89BE
:102E2000FC01318320830E94272C8091E80290913D
:102E3000E902A091EA02B091EB022B853C854D8519
:102E40005E85BC01CD010E94987BDC01CB018D8F9A
:102E50009E8FAF8FB8A31A82198247C089819A8149
:102E6000880F991F880F991F2B893C89820F931F08
:102E7000FC01C080D180E280F38089819A81880F33
:102E8000991F880F991F2D893E89820F931FFC017E
:102E900080819181A281B3812D8D3E8D4F8D58A16E
:102EA000BC01CD010E94987BDC01CB01AC01BD01CE
:102EB00089819A81880F991F880F991F2F853889DA
:102EC0008901080F191F9A01AB01C701B6010E94C1
:102ED0003179DC01CB01F80180839183A283B38334
:102EE00089819A8101969A83898329813A818B8D80
:102EF0009C8D281739070CF4B1CF80910C03909169
:102F00000D03A0910E03B0910F032B853C854D85D9
:102F10005E85BC01CD010E94987BDC01CB016C0178
:102F20007D0189A59AA5FC0184AD95ADFC010081C8
:102F300011812B813C814D815E81C701B6010E94C8
:102F40003179DC01CB01F80180839183A283B383C3
:102F500089A59AA5FC0182AD93AD2F89388DFC011E
:102F60003183208359D20E94272C1A8219822FC0C4
:102F700089819A810396880F991F880F991F88511C
:102F80009D4FFC0180819181A281B3812B853C857D
:102F90004D855E85BC01CD010E94987BDC01CB0193
:102FA00029813A81220F331F220F331FAE014F5F59
:102FB0005F4F240F351F245E3F4FF90180839183BB
:102FC000A283B38389819A8101969A8389838981B7
:102FD0009A8102976CF21A8219826AC089819A8159
:102FE000880F991F880F991F2B893C89820F931F87
:102FF000FC01C080D180E280F38089819A81880FB2
:10300000991F880F991F2D893E89820F931FFC01FC
:1030100080819181A281B3812D8D3E8D4F8D58A1EC
:10302000BC01CD010E94987BDC01CB014C015D010C
:1030300089819A81880F991F880F991F2F89388D50
:10304000820F931FFC0180819181A281B38129A10C
:103050003AA14BA15CA1BC01CD010E94987BDC018F
:10306000CB019C01AD01C501B4010E943179DC01A5
:10307000CB01AC01BD0189819A81880F991F880F0E
:10308000991F2F8538898901080F191F9A01AB01F3
:10309000C701B6010E943179DC01CB01F8018083C0
:1030A0009183A283B38389819A8101969A838983CC
:1030B00029813A818B8D9C8D281739070CF48ECF8E
:1030C0008091100390911103A0911203B09113030A
:1030D0002B853C854D855E85BC01CD010E94987B8A
:1030E000DC01CB016C017D0189A59AA5FC0184ADB1
:1030F00095ADFC01008111812B813C814D815E8168
:10310000C701B6010E943179DC01CB01F80180834F
:103110009183A283B38389A59AA5FC0182AD93AD67
:10312000298D3A8DFC013183208376D10E94272C92
:103130001A8219822FC089819A810696880F991F59
:10314000880F991F88519D4FFC0180819181A28138
:10315000B3812B853C854D855E85BC01CD010E94E8
:10316000987BDC01CB0129813A81220F331F220F8A
:10317000331FAE014F5F5F4F240F351F245E3F4F5B
:10318000F90180839183A283B38389819A81019617
:103190009A83898389819A8103976CF21A821982B2
:1031A0008DC089819A81880F991F880F991F2B895B
:1031B0003C89820F931FFC01C080D180E280F380A4
:1031C00089819A81880F991F880F991F2D893E89BF
:1031D000820F931FFC0180819181A281B3812D8D8B
:1031E0003E8D4F8D58A1BC01CD010E94987BDC0122
:1031F000CB014C015D0189819A81880F991F880F4D
:10320000991F2F89388D820F931FFC018081918136
:10321000A281B38129A13AA14BA15CA1BC01CD013E
:103220000E94987BDC01CB019C01AD01C501B4017A
:103230000E943179DC01CB014C015D0189819A81C9
:10324000880F991F880F991F298D3A8D820F931F20
:10325000FC0180819181A281B3812DA13EA14FA16A
:1032600058A5BC01CD010E94987BDC01CB019C01DB
:10327000AD01C501B4010E943179DC01CB01AC0183
:10328000BD0189819A81880F991F880F991F2F8509
:1032900038898901080F191F9A01AB01C701B601CE
:1032A0000E943179DC01CB01F80180839183A283F4
:1032B000B38389819A8101969A83898329813A818E
:1032C0008B8D9C8D281739070CF46BCF89A59AA597
:1032D000FC0184AD95ADFC01208131818F81988501
:1032E000A985BA85F90180839183A283B38389A5D7
:1032F0009AA5FC018281938121E030E0FC013183B9
:1033000020830000AA960FB6F894DEBF0FBECDBF93
:10331000DF91CF911F910F91FF90EF90DF90CF90B1
:10332000BF90AF909F908F900895CF93DF9300D080
:1033300000D01F921F92CDB7DEB79A8389834B834B
:103340005C836D837E8338872F8389819A81855E34
:103350009E4FFC0180819181019759F42F8138851E
:103360008B819C81AD81BE81F90180839183A28391
:10337000B383000028960FB6F894DEBF0FBECDBF12
:10338000DF91CF910895CF93DF931F921F92CDB716
:10339000DEB79A83898389819A81FC018181928138
:1033A000A381B4810197A105B10581F589819A8135
:1033B000FC018581882351F16DE070E080E090E0B0
:1033C0000E94E2059C0189819A81FC013783268352
:1033D00089819A81FC018681978140E050E060E01C
:1033E00070E80E9469056DE070E080E090E00E9466
:1033F000E2059C0189819A81FC01378326838981BA
:103400009A81FC01868197810E94BD0500000F9082
:103410000F90DF91CF9108952F923F924F925F923C
:103420006F927F928F929F92AF92BF92CF92DF92D4
:10343000EF92FF920F931F93CF93DF93CDB7DEB739
:10344000CD54D1090FB6F894DEBF0FBECDBF84E1D5
:1034500094E0855E9E4FFC0180819181019709F087
:10346000A9C084E194E08D5F9E4FFC018081918131
:10347000A281B3818F3F9F4FAF4FBF4FA9F584E12A
:1034800094E0895F9E4FFC0180819181A281B3818C
:103490000196A11DB11DBC01CD010E94357A7B01B1
:1034A0008C0184E194E0855F9E4FFC0180819181D5
:1034B000A281B3819C01AD01C801B7010E94987B34
:1034C000DC01CB0104E114E020E030E040E85FE4FF
:1034D000BC01CD010E94987BDC01CB01F801808BFF
:1034E000918BA28BB38B66C084E194E08D5F9E4F7D
:1034F000FC0180819181A281B3810196A11DB11D42
:10350000BC01CD010E94357A7B018C0184E194E0FD
:10351000855F9E4FFC0180819181A281B3819C01D6
:10352000AD01C801B7010E94987BDC01CB016C01A1
:103530007D0184E194E0895F9E4FFC01808191814F
:10354000A281B381BC01CD010E94357A26966CAF71
:103550007DAF8EAF9FAF269784E194E0855F9E4F4D
:10356000FC0180819181A281B3819C01AD012696ED
:103570006CAD7DAD8EAD9FAD26970E94987BDC0132
:10358000CB0120E030E040E85FE4BC01CD010E94C7
:10359000987BDC01CB0104E114E09C01AD01C70183
:1035A000B6010E943179DC01CB01F801808B918B4F
:1035B000A28BB38B84E194E0855E9E4FFC018081F9
:1035C0009181892BD9F484E194E0805C9F4FFC01C8
:1035D00080819181FC018081918124E134E0225E2F
:1035E0003E4FF90120813181FC0180819181A281CE
:1035F000B381F90180839183A283B3838091910D7C
:10360000082E000C990B9C8B8B8B1C861B868B8940
:103610009C8982309105B1F08330910528F40097A0
:1036200049F0019751F019C08330910581F004975A
:1036300089F013C01C861B860FC083E090E09C8736
:103640008B870AC083E090E09C878B8705C01C862F
:103650001B8602C01C861B8600008B858093910D03
:103660008091230D9091240DA091250DB091260DF0
:103670002091440230914502409146025091470208
:10368000BC01CD010E949579882381F0809144028C
:1036900090914502A0914602B09147028093230D7C
:1036A0009093240DA093250DB093260DCE018F5B32
:1036B0009F4F2CE0FC0120838091190D90911A0DF1
:1036C000AE014F5B5F4FC12CEE24E39401E010E0AC
:1036D00020E030E066E370E00E94830A282FCE01EC
:1036E0008F5B9F4FFC012083CE018F5B9F4FFC01BE
:1036F00080818823C9F48091190D90911A0DAE0133
:103700004F5B5F4FCC24C394E12C01E010E020E03C
:1037100030E066E370E00E94B809CE018F5B9F4FF6
:10372000FC0180818FAF01C01FAE80910F0D909181
:10373000100DA091110DB091120D20914802309101
:10374000490240914A0250914B02BC01CD010E94B6
:103750009579882381F08091480290914902A09147
:103760004A02B0914B0280930F0D9093100DA093DD
:10377000110DB093120DCE018F5B9F4F2DE0FC0118
:1037800020838091050D9091060DAE014F5B5F4F38
:10379000C12CEE24E39401E010E020E030E066E389
:1037A00070E00E94830A282FCE018F5B9F4FFC019F
:1037B0002083CE018F5B9F4FFC0180818823E9F439
:1037C0008091050D9091060DAE014F5B5F4FCC24AB
:1037D000C394E12C01E010E020E030E066E370E00B
:1037E0000E94B809CE018F5B9F4FFC012081CE0162
:1037F000805C9F4FFC01208305C0CE01805C9F4F01
:10380000FC0110828FAD882F90E0382F2227CE0147
:10381000805C9F4FFC018081882F90E0820F931F76
:10382000CC01A0E0B0E08093E30C9093E40CA09373
:10383000E50CB093E60C84E194E0855E9E4FFC01BC
:1038400080819181019701F58091810D9091820D88
:10385000A091830DB091840D8093E70C9093E80CB8
:10386000A093E90CB093EA0C8091850D9091860DA0
:10387000A091870DB091880D8093EB0C9093EC0C88
:10388000A093ED0CB093EE0C8091EB0C9091EC0CAE
:10389000A091ED0CB091EE0C81159840A105B048B7
:1038A0004CF480E090E0A0E0B0E88BAF9CAFADAF0F
:1038B000BEAF0FC08091EB0C9091EC0CA091ED0C81
:1038C000B091EE0C9850A109B1098BAF9CAFADAF90
:1038D000BEAF8091EB0C9091EC0CA091ED0CB091EF
:1038E000EE0C81309840A105B1050CF41BC120916C
:1038F000E30C3091E40C4091E50C5091E60C8BAD5B
:103900009CADADADBEAD281739074A075B070CF07B
:1039100009C18091E70C9091E80CA091E90CB0915D
:10392000EA0C8115904FAF4FBF474CF08FEF9FEFE0
:10393000AFEFBFE78BAF9CAFADAFBEAF0FC0809115
:10394000E70C9091E80CA091E90CB091EA0C905F23
:10395000AF4FBF4F8BAF9CAFADAFBEAF8BAD9CAD8C
:10396000ADADBEADBB23F4F02091EB0C3091EC0C6F
:103970004091ED0C5091EE0C8BAD9CADADADBEAD5C
:103980008F5F9F4FAF4FBF47281739074A075B0725
:103990004CF48FEF9FEFAFEFBFE78BAF9CAFADAFB6
:1039A000BEAF39C08BAD9CADADADBEADBB23DCF4BD
:1039B0002091EB0C3091EC0C4091ED0C5091EE0C01
:1039C0008BAD9CADADADBEADB05882179307A407CB
:1039D000B5074CF480E090E0A0E0B0E88BAF9CAF7E
:1039E000ADAFBEAF18C02BAD3CAD4DAD5EAD80915F
:1039F000EB0C9091EC0CA091ED0CB091EE0C5901F8
:103A00006A01A81AB90ACA0ADB0AD601C5018BAF36
:103A10009CAFADAFBEAF8BAD9CADADADBEADBB236E
:103A20006CF58091E30C9091E40CA091E50CB091C1
:103A3000E60C9C0140E050E08BAD9CADADADBEAD61
:103A4000E12CF12C00E010E857016801A81AB90A2E
:103A5000CA0ADB0AD601C501281739074A075B07DE
:103A60006CF480E090E0A0E0B0E88093EF0C9093DD
:103A7000F00CA093F10CB093F20C53C08BAD9CAD45
:103A8000ADADBEAD181619061A061B0674F5809169
:103A9000E30C9091E40CA091E50CB091E60C9C0134
:103AA00040E050E08BAD9CADADADBEADEE24EA94F0
:103AB000FE2C0FEF1FE757016801A81AB90ACA0ABE
:103AC000DB0AD601C50182179307A407B5076CF47A
:103AD0008FEF9FEFAFEFBFE78093EF0C9093F00C69
:103AE000A093F10CB093F20C1CC08091E30C909168
:103AF000E40CA091E50CB091E60C9C0140E050E094
:103B00008BAD9CADADADBEAD820F931FA41FB51F95
:103B10008093EF0C9093F00CA093F10CB093F20C07
:103B200028C227C28091E30C9091E40CA091E50C8F
:103B3000B091E60C8130984008F425C12091EB0C3F
:103B40003091EC0C4091ED0C5091EE0C8091E30C17
:103B50009091E40CA091E50CB091E60CCC01A0E0B2
:103B6000B0E09850A109B109281739074A075B0747
:103B70000CF009C18091E70C9091E80CA091E90C40
:103B8000B091EA0C81159041A105B0484CF480E059
:103B900090E0A0E0B0E88BAF9CAFADAFBEAF0FC080
:103BA0008091E70C9091E80CA091E90CB091EA0C9F
:103BB0009051A109B1098BAF9CAFADAFBEAF8BAD3A
:103BC0009CADADADBEADBB23F4F02091EB0C3091BC
:103BD000EC0C4091ED0C5091EE0C8BAD9CADADAD6D
:103BE000BEAD8F5F9F4FAF4FBF47281739074A07BA
:103BF0005B074CF48FEF9FEFAFEFBFE78BAF9CAF4E
:103C0000ADAFBEAF39C08BAD9CADADADBEADBB23CE
:103C1000DCF42091EB0C3091EC0C4091ED0C5091C8
:103C2000EE0C8BAD9CADADADBEADB0588217930719
:103C3000A407B5074CF480E090E0A0E0B0E88BAFBB
:103C40009CAFADAFBEAF18C02BAD3CAD4DAD5EADC2
:103C50008091EB0C9091EC0CA091ED0CB091EE0CDE
:103C600059016A01A81AB90ACA0ADB0AD601C501B4
:103C70008BAF9CAFADAFBEAF8BAD9CADADADBEADB0
:103C8000BB236CF58091E30C9091E40CA091E50CC2
:103C9000B091E60C9C0140E050E08BAD9CADADAD29
:103CA000BEADE12CF12C00E010E857016801A81A24
:103CB000B90ACA0ADB0AD601C501281739074A071B
:103CC0005B076CF480E090E0A0E0B0E88093EF0C3C
:103CD0009093F00CA093F10CB093F20C53C08BAD09
:103CE0009CADADADBEAD181619061A061B0674F5CF
:103CF0008091E30C9091E40CA091E50CB091E60C5E
:103D00009C0140E050E08BAD9CADADADBEADEE246E
:103D1000EA94FE2C0FEF1FE757016801A81AB90AB1
:103D2000CA0ADB0AD601C50182179307A407B507A3
:103D30006CF48FEF9FEFAFEFBFE78093EF0C9093A2
:103D4000F00CA093F10CB093F20C1CC08091E30C2A
:103D50009091E40CA091E50CB091E60C9C0140E040
:103D600050E08BAD9CADADADBEAD820F931FA41FD7
:103D7000B51F8093EF0C9093F00CA093F10CB093CF
:103D8000F20CF7C0F6C08091E70C9091E80CA0917E
:103D9000E90CB091EA0CBB2314F12091EB0C3091AB
:103DA000EC0C4091ED0C5091EE0C8091E70C909151
:103DB000E80CA091E90CB091EA0C8F5F9F4FAF4FD8
:103DC000BF47281739074A075B074CF48FEF9FEF6F
:103DD000AFEFBFE78BAF9CAFADAFBEAF45C080913B
:103DE000E70C9091E80CA091E90CB091EA0CBB2390
:103DF000FCF42091EB0C3091EC0C4091ED0C5091C7
:103E0000EE0C8091E70C9091E80CA091E90CB09138
:103E1000EA0CB05882179307A407B5074CF480E06A
:103E200090E0A0E0B0E88BAF9CAFADAFBEAF1CC0E0
:103E30002091E70C3091E80C4091E90C5091EA0C8C
:103E40008091EB0C9091EC0CA091ED0CB091EE0CEC
:103E500069017A01C81AD90AEA0AFB0AD701C60120
:103E60008BAF9CAFADAFBEAF8BAD9CADADADBEADBE
:103E7000BB236CF58091E30C9091E40CA091E50CD0
:103E8000B091E60C9C0140E050E08BAD9CADADAD37
:103E9000BEADE12CF12C00E010E857016801A81A32
:103EA000B90ACA0ADB0AD601C501281739074A0729
:103EB0005B076CF480E090E0A0E0B0E88093EF0C4A
:103EC0009093F00CA093F10CB093F20C52C08BAD18
:103ED0009CADADADBEAD181619061A061B0674F5DD
:103EE0008091E30C9091E40CA091E50CB091E60C6C
:103EF0009C0140E050E08BAD9CADADADBEADEE247D
:103F0000EA94FE2C0FEF1FE757016801A81AB90ABF
:103F1000CA0ADB0AD601C50182179307A407B507B1
:103F20006CF48FEF9FEFAFEFBFE78093EF0C9093B0
:103F3000F00CA093F10CB093F20C1BC08091E30C39
:103F40009091E40CA091E50CB091E60C9C0140E04E
:103F500050E08BAD9CADADADBEAD820F931FA41FE5
:103F6000B51F8093EF0C9093F00CA093F10CB093DD
:103F7000F20CC0905402D0905502E0905602F0909E
:103F800057028091EF0C9091F00CA091F10CB09140
:103F9000F20CBC01CD010E94377ADC01CB019C01FF
:103FA000AD01C701B6010E94987BDC01CB017C0109
:103FB0008D0180910C0290910D02A0910E02B091A2
:103FC0000F029C01AD01C801B7010E943079DC01EC
:103FD000CB017C018D018091580290915902A091F2
:103FE0005A02B0915B029C01AD01C801B7010E9469
:103FF0003179DC01CB0180938B0C90938C0CA093D6
:104000008D0CB0938E0C80918B0C90918C0CA091A8
:104010008D0CB0918E0CBF7780938F0C9093900C89
:10402000A093910CB093920C84E194E0FC01868102
:104030009781FC0180819181019741F084E194E0B6
:104040008F579F4FFC0180818823B9F180918F0C9D
:104050009091900CA091910CB091920C11E029E2FA
:104060003CE54FE250E4BC01CD010E945E7B882319
:104070000CF410E081E081278823C1F480918F0C3B
:104080009091900CA091910CB091920C11E023E3CF
:1040900033E343E650E4BC01CD010E949579181644
:1040A0000CF410E081E08127882319F081E090E092
:1040B00002C080E090E08093890D8091890D082EE8
:1040C000000C990B009721F0019709F448C090C0AB
:1040D0008091600290916102A0916202B0916302AE
:1040E000E4E1F4E023E93CE0AC01BD01CF011DD9DE
:1040F00084E194E0FC0186819781FC0180819181BB
:10410000019749F084E194E08F579F4FFC01808133
:10411000882309F46AC08091910D082E000C990B38
:10412000988F8F8B8F89988D9E878D878F89988D9B
:104130008330910518F4019768F403C0039731F0B8
:1041400009C082E090E09E878D8704C081E090E006
:104150009E878D8700008D858093910D46C080914C
:104160005C0290915D02A0915E02B0915F02E4E179
:10417000F4E023E93CE0AC01BD01CF01D6D884E1F5
:1041800094E0FC0186819781FC01808191810197F7
:1041900041F084E194E08F579F4FFC018081882398
:1041A00031F18091900D082E000C990B9E8B8D8B18
:1041B0008D899E89988B8F878D899E898330910503
:1041C00018F4019768F403C0039731F009C082E046
:1041D00090E0988B8F8704C081E090E0988B8F8768
:1041E00000008F858093900D02C0000001C0000088
:1041F00084E194E0855E9E4FFC018081918101976E
:1042000081F48091640290916502A0916602B09160
:1042100067028093970C9093980CA093990CB0939D
:104220009A0C10929B0C10929C0C10929D0C109268
:104230009E0CC0909B0CD0909C0CE0909D0CF0903C
:104240009E0C80916C0290916D02A0916E02B091D3
:104250006F022091670C3091680C4091690C50916D
:104260006A0CBC01CD010E94987BDC01CB019C0152
:10427000AD01C701B6010E943179DC01CB01809309
:104280009B0C90939C0CA0939D0CB0939E0C8091E2
:10429000970C9091980CA091990CB0919A0C209148
:1042A0009B0C30919C0C40919D0C50919E0CBC013C
:1042B000CD010E943079DC01CB017C018D01809120
:1042C000700290917102A0917202B09173029C01F0
:1042D000AD01C801B7010E94987BDC01CB0180933E
:1042E0009F0C9093A00CA093A10CB093A20C809172
:1042F0008B0C90918C0CA0918D0CB0918E0CBC010C
:10430000CD010E946733882389F080919E0D9091A2
:104310009F0DA091A00DB091A10D8093DF0C909303
:10432000E00CA093E10CB093E20C3FC080918B0CA9
:1043300090918C0CA0918D0CB0918E0C20E030E00F
:10434000A901BC01CD010E94957988236CF480E01D
:1043500090E0A0E8BFEB8093DF0C9093E00CA0937B
:10436000E10CB093E20C21C080918B0C90918C0CED
:10437000A0918D0CB0918E0C20E030E0A901BC0121
:10438000CD010E945E7B18162CF480E090E0A0E83E
:10439000BFE303C080E090E0DC018093DF0C9093EA
:1043A000E00CA093E10CB093E20C80917402909128
:1043B0007502A0917602B091770220918F0C309116
:1043C000900C4091910C5091920CBC01CD010E9437
:1043D0003079DC01CB017C018D018091DF0C909163
:1043E000E00CA091E10CB091E20C9C01AD01C80180
:1043F000B7010E94987BDC01CB018093A30C9093C2
:10440000A40CA093A50CB093A60C80919F0C909146
:10441000A00CA091A10CB091A20C2091A30C309102
:10442000A40C4091A50C5091A60CBC01CD010E949A
:104430003079DC01CB01898F9A8FAB8FBC8F809153
:10444000100290911102A0911202B0911302298DD5
:104450003A8D4B8D5C8DBC01CD010E94987BDC01B7
:10446000CB017C018D0180916F0C9091700CA0911B
:10447000710CB091720C9C01AD01C801B7010E9492
:104480003079DC01CB017C018D018091300290916B
:104490003102A0913202B09133029C01AD01C801FA
:1044A000B7010E94987BDC01CB018093A70C90930D
:1044B000A80CA093A90CB093AA0C809138029091FB
:1044C0003902A0913A02B0913B02298D3A8D4B8D71
:1044D0005C8DBC01CD010E94987BDC01CB017C018D
:1044E0008D0180916B0C90916C0CA0916D0CB09132
:1044F0006E0C9C01AD01C801B7010E943179DC014D
:10450000CB017C018D018091A70C9091A80CA0910A
:10451000A90CB091AA0C9C01AD01C801B7010E9481
:104520003179DC01CB017C018D0180917802909181
:104530007902A0917A02B0917B029C01AD01C80181
:10454000B7010E94987BDC01CB018093AB0C909368
:10455000AC0CA093AD0CB093AE0C84E194E0825E01
:104560009E4FFC0180819181FC0180819181A2811B
:10457000B3818093D30C9093D40CA093D50CB093BB
:10458000D60C80913F0D9091400DA091410DB091BE
:10459000420D2091D30C3091D40C4091D50C509108
:1045A000D60CBC01CD010E945E7B8823FCF080917B
:1045B000470D9091480DA091490DB0914A0D209161
:1045C000D30C3091D40C4091D50C5091D60CBC0139
:1045D000CD010E945E7B88234CF01092AF0C1092AC
:1045E000B00C1092B10C1092B20CACC080913F0D87
:1045F0009091400DA091410DB091420D89839A8315
:10460000AB83BC8383E49DE09A87898780913F0DCB
:104610009091400DA091410DB091420D2091470D18
:104620003091480D4091490D50914A0DBC01CD018A
:104630000E94957988233CF58091470D9091480D13
:10464000A091490DB0914A0D2091D30C3091D40C1A
:104650004091D50C5091D60CBC01CD010E949579AA
:104660008823BCF58091470D9091480DA091490D8C
:10467000B0914A0D89839A83AB83BC838BE49DE020
:104680009A87898726C080913F0D9091400DA09117
:10469000410DB091420D2091D30C3091D40C40913A
:1046A000D50C5091D60CBC01CD010E945E7B8823B5
:1046B00084F08091470D9091480DA091490DB091E3
:1046C0004A0D89839A83AB83BC838BE49DE09A87F0
:1046D000898780918B0C90918C0CA0918D0CB0915E
:1046E0008E0C29853A85F9012081318142815381DF
:1046F000BC01CD010E943079DC01CB016C017D0150
:104700008091D30C9091D40CA091D50CB091D60C83
:1047100029813A814B815C81BC01CD010E943079B5
:10472000DC01CB019C01AD01C701B6010E949C795F
:10473000DC01CB018093AF0C9093B00CA093B10C33
:10474000B093B20C8091AB0C9091AC0CA091AD0CDD
:10475000B091AE0C2091AF0C3091B00C4091B10CE7
:104760005091B20CBC01CD010E943079DC01CB012B
:1047700089839A83AB83BC83809114029091150244
:10478000A0911602B091170229813A814B815C8178
:10479000BC01CD010E94987BDC01CB017C018D0125
:1047A0008091770C9091780CA091790CB0917A0C53
:1047B0009C01AD01C801B7010E943079DC01CB0139
:1047C0007C018D018091340290913502A0913602D6
:1047D000B09137029C01AD01C801B7010E94987BDE
:1047E000DC01CB018093B30C9093B40CA093B50C77
:1047F000B093B60C8091930C9091940CA091950C71
:10480000B091960C20E030E0A901BC01CD010E94DE
:104810009579882309F43FC080913C0290913D0234
:10482000A0913E02B0913F0229813A814B815C8187
:10483000BC01CD010E94987BDC01CB017C018D0184
:104840008091730C9091740CA091750CB091760CC2
:104850009C01AD01C801B7010E943179DC01CB0197
:104860007C018D018091B30C9091B40CA091B50C9A
:10487000B091B60C9C01AD01C801B7010E9431791D
:10488000DC01CB018093B70C9093B80CA093B90CCA
:10489000B093BA0CDEC080918B0C90918C0CA091DF
:1048A0008D0CB0918E0CBC01CD010E949979DC0178
:1048B000CB018D839E83AF83B8878091AF0C90919D
:1048C000B00CA091B10CB091B20CBC01CD010E9412
:1048D0006733882389F080919E0D90919F0DA09160
:1048E000A00DB091A10D8093DF0C9093E00CA093EC
:1048F000E10CB093E20C3FC08091AF0C9091B00CF2
:10490000A091B10CB091B20C20E030E0A901BC0143
:10491000CD010E94957988236CF480E090E0A0E8B6
:10492000BFEB8093DF0C9093E00CA093E10CB0936D
:10493000E20C21C08091AF0C9091B00CA091B10C11
:10494000B091B20C20E030E0A901BC01CD010E9481
:104950005E7B18162CF480E090E0A0E8BFE303C073
:1049600080E090E0DC018093DF0C9093E00CA0935A
:10497000E10CB093E20C8D819E81AF81B885BC01C2
:10498000CD010E946733882369F080919E0D90913C
:104990009F0DA091A00DB091A10D8D839E83AF833B
:1049A000B8872BC020E030E0A9016D817E818F8126
:1049B00098850E94957988234CF480E090E0A0E8E7
:1049C000BFEB8D839E83AF83B88717C020E030E0B4
:1049D000A9016D817E818F8198850E945E7B18166A
:1049E0002CF480E090E0A0E8BFE303C080E090E01A
:1049F000DC018D839E83AF83B8878091DF0C90911B
:104A0000E00CA091E10CB091E20C2D813E814F8130
:104A10005885BC01CD010E94987BDC01CB017C0153
:104A20008D0180914C0290914D02A0914E02B09167
:104A30004F029C01AD01C801B7010E94987BDC01C7
:104A4000CB018093B70C9093B80CA093B90CB093A2
:104A5000BA0C8091B70C9091B80CA091B90CB091A0
:104A6000BA0C2091800230918102409182025091D3
:104A70008302BC01CD010E945E7B88238CF0809173
:104A8000500290915102A0915202B0915302809332
:104A9000DF0C9093E00CA093E10CB093E20C10C0FB
:104AA00080917C0290917D02A0917E02B0917F0264
:104AB0008093DF0C9093E00CA093E10CB093E20C98
:104AC0008091DF0C9091E00CA091E10CB091E20C90
:104AD00011E020E030E0A901BC01CD010E949579F0
:104AE000882309F010E0812F682F84E00E94F304EE
:104AF0008091DF0C9091E00CA091E10CB091E20C60
:104B000011E020E030E0A901BC01CD010E949579BF
:104B1000882309F410E0812F682F85E00E94F304B8
:104B200087E39DE09E8F8D8F8091B70C9091B80C9C
:104B3000A091B90CB091BA0CBF772091840230914A
:104B400085024091860250918702BC01CD010E94EE
:104B50003179DC01CB018093DF0C9093E00CA093C2
:104B6000E10CB093E20C8091DF0C9091E00CA091ED
:104B7000E10CB091E20C20910802309109024091C1
:104B80000A0250910B02BC01CD010E945E7B1816F7
:104B90008CF48091080290910902A0910A02B091D0
:104BA0000B028093DF0C9093E00CA093E10CB09388
:104BB000E20C2AC0E090DF0CF090E00C0091E10CD8
:104BC0001091E20C8091080290910902A0910A02D2
:104BD000B0910B02B0589C01AD01C801B7010E9411
:104BE000957988238CF48091080290910902A09114
:104BF0000A02B0910B02B0588093DF0C9093E00C46
:104C0000A093E10CB093E20C8091DF0C9091E00C4A
:104C1000A091E10CB091E20C11E020E030E04FE710
:104C200053E4BC01CD010E94957918160CF410E0F4
:104C300081E08127882361F080E090E0AFE7B3E472
:104C40008093DF0C9093E00CA093E10CB093E20C06
:104C50006DE070E080E090E00E94E2059C018D8DA7
:104C60009E8DFC01378326838091DF0C9091E00CB0
:104C7000A091E10CB091E20C11E020E030E0A9013C
:104C8000BC01CD010E945E7B88230CF410E081E022
:104C90008127882341F01092DF0C1092E00C1092D3
:104CA000E10C1092E20C8091DF0C9091E00CA0914D
:104CB000E10CB091E20C20E030E04FE753E4BC019E
:104CC000CD010E94987BDC01CB0120E030E04FE772
:104CD00053E4BC01CD010E949C79DC01CB01B058AA
:104CE00020913D0D30913E0DAC01BD01C9010E94E6
:104CF00069058091180290911902A0911A02B09151
:104D00001B0229813A814B815C81BC01CD010E944B
:104D1000987BDC01CB018093BB0C9093BC0CA093DF
:104D2000BD0CB093BE0C80911C0290911D02A0910D
:104D30001E02B0911F02298D3A8D4B8D5C8DBC01F6
:104D4000CD010E94987BDC01CB018093BF0C909336
:104D5000C00CA093C10CB093C20C8091FA0C90913E
:104D6000FB0CA091FC0CB091FD0C20914002309105
:104D700041024091420250914302BC01CD010E9488
:104D80009579882381F08091400290914102A09111
:104D90004202B09143028093FA0C9093FB0CA093D3
:104DA000FC0CB093FD0C8091F90C882311F010924B
:104DB000F90C2091FE0CCE01CB96BC01822F0E94F3
:104DC0000103A0909002B0909102C0909202D09006
:104DD0009302E0909402F090950200919602109157
:104DE00097022A2D3B2D4C2D5D2D6E2D7F2D802F72
:104DF000912F2BA73CA74DA75EA76FA778AB89ABD8
:104E00009AAB8091A0029091A102A091A202B091D0
:104E1000A3021C012D01BB0F880B982FDC01682E0B
:104E2000782E882E982E8BAD9CADADADBEAD2A965A
:104E30008CAF9DAFAEAFBFAF2A97BB0F880B982F3B
:104E4000DC012B968FAF2B972C968FAF2C972D963E
:104E50008FAF2D972E968FAF2E972796AFAC2797B3
:104E60002896BFAC28972996CFAC29972A96DFAC15
:104E70002A972B96EFAC2B972C96FFAC2C972D9660
:104E80000FAD2D972E961FAD2E97222D332D442D2D
:104E9000552D662D772D882D992D0E943B96222E1B
:104EA000332E442E552E662E772E882E992EA22C28
:104EB000B32CC42CD52CE62CF72C082D192D2A2D1B
:104EC0003B2D4C2D5D2D6E2D7F2D802F912F2BABEB
:104ED0003CAB4DAB5EAB6FAB78AF89AF9AAFAE0179
:104EE0004D5C5F4FCE018B966894EE24E1F8F12C77
:104EF0000BE71CE021E030E061E070E00E940A0F67
:104F000040E050E062E070E08BE79CE00E947C0DA6
:104F1000DC01CB0120E030E040E85EE0BC01CD01E7
:104F20000E94987BDC01CB018093C30C9093C40C4E
:104F3000A093C50CB093C60C84E194E0855E9E4FAF
:104F4000FC0180819181019781F480914F0D9091B6
:104F5000500DA091510DB091520D8093C70C9093BC
:104F6000C80CA093C90CB093CA0C80910402909114
:104F70000502A0910602B09107029C01AD0160E01C
:104F800070E080E89FE30E949C79DC01CB016C011A
:104F90007D018091C30C9091C40CA091C50CB0917F
:104FA000C60C2091C70C3091C80C4091C90C50918F
:104FB000CA0CBC01CD010E943079DC01CB019C01FF
:104FC000AD01C701B6010E94987BDC01CB01809343
:104FD000CB0C9093CC0CA093CD0CB093CE0C8091C5
:104FE000530D9091540DA091550DB091560D2091F7
:104FF000D30C3091D40C4091D50C5091D60CBC01FF
:10500000CD010E945E7B8823FCF080915B0D909126
:105010005C0DA0915D0DB0915E0D2091D30C30918F
:10502000D40C4091D50C5091D60CBC01CD010E94FE
:105030005E7B88234CF01092CF0C1092D00C109213
:10504000D10C1092D20CACC08091530D9091540DA4
:10505000A091550DB091560D89839A83AB83BC8383
:1050600087E59DE09A8789878091530D9091540D33
:10507000A091550DB091560D20915B0D30915C0DB6
:1050800040915D0D50915E0DBC01CD010E9495795E
:1050900088233CF580915B0D90915C0DA0915D0D96
:1050A000B0915E0D2091D30C3091D40C4091D50C71
:1050B0005091D60CBC01CD010E9495798823BCF596
:1050C00080915B0D90915C0DA0915D0DB0915E0D96
:1050D00089839A83AB83BC838FE59DE09A87898718
:1050E00026C08091530D9091540DA091550DB09113
:1050F000560D2091D30C3091D40C4091D50C509189
:10510000D60CBC01CD010E945E7B882384F0809187
:105110005B0D90915C0DA0915D0DB0915E0D89834A
:105120009A83AB83BC838FE59DE09A8789878091C2
:10513000C30C9091C40CA091C50CB091C60C2985EC
:105140003A85F9012081318142815381BC01CD0131
:105150000E943079DC01CB016C017D018091D30C80
:105160009091D40CA091D50CB091D60C29813A81A4
:105170004B815C81BC01CD010E943079DC01CB0107
:105180009C01AD01C701B6010E949C79DC01CB01F5
:105190008093CF0C9093D00CA093D10CB093D20CF1
:1051A00084E194E0855E9E4FFC01808191810197AE
:1051B00081F48091630D9091640DA091650DB09183
:1051C000660D8093D70C9093D80CA093D90CB09314
:1051D000DA0C8091D30C9091D40CA091D50CB091A5
:1051E000D60C2091D70C3091D80C4091D90C50910D
:1051F000DA0CBC01CD010E943079DC01CB01809337
:10520000DB0C9093DC0CA093DD0CB093DE0C84E1FE
:1052100094E0855E9E4FFC0180819181019709F0A9
:105220006FC284E194E0855E9E4FFC018081918194
:10523000019701F58091EF0C9091F00CA091F10C89
:10524000B091F20C8093810D9093820DA093830D09
:10525000B093840D8091E30C9091E40CA091E50C47
:10526000B091E60C8093850D9093860DA093870DE9
:10527000B093880D80913F0D9091400DA091410D0C
:10528000B091420D20919A0D30919B0D40919C0D53
:1052900050919D0DBC01CD010E9495798823C9F4E0
:1052A00084E194E0825E9E4FFC0180819181FC014B
:1052B00080819181A281B38180933F0D9093400DB5
:1052C000A093410DB093420D83E49DE09A8B898BAE
:1052D00076C08091470D9091480DA091490DB091F5
:1052E0004A0D20919A0D30919B0D40919C0D50914B
:1052F0009D0DBC01CD010E9495798823C9F484E1FC
:1053000094E0825E9E4FFC0180819181FC0180814E
:105310009181A281B3818093470D9093480DA09312
:10532000490DB0934A0D8BE49DE09A8B898B47C061
:1053300080913F0D9091400DA091410DB091420D93
:105340002091470D3091480D4091490D50914A0DE3
:10535000BC01CD010E9495798823CCF484E194E0CE
:10536000825E9E4FFC0180819181FC018081918150
:10537000A281B38180933F0D9093400DA093410D86
:10538000B093420D83E49DE09A8B898B18C084E131
:1053900094E0825E9E4FFC0180819181FC018081BE
:1053A0009181A281B3818093470D9093480DA09382
:1053B000490DB0934A0D8BE49DE09A8B898B8091C7
:1053C0008B0C90918C0CA0918D0CB0918E0C298936
:1053D0003A89F90180839183A283B38384E194E0C5
:1053E000855E9E4FFC0180819181019781F48091BF
:1053F000C30C9091C40CA091C50CB091C60C8093C5
:105400004F0D9093500DA093510DB093520D80917C
:10541000530D9091540DA091550DB091560D2091C2
:105420009A0D30919B0D40919C0D50919D0DBC01AA
:10543000CD010E9495798823C9F484E194E0825ECD
:105440009E4FFC0180819181FC0180819181A2812C
:10545000B3818093530D9093540DA093550DB09349
:10546000560D87E59DE09A8B898B76C080915B0D08
:1054700090915C0DA0915D0DB0915E0D20919A0D03
:1054800030919B0D40919C0D50919D0DBC01CD0123
:105490000E9495798823C9F484E194E0825E9E4F4E
:1054A000FC0180819181FC0180819181A281B38185
:1054B00080935B0D90935C0DA0935D0DB0935E0D9A
:1054C0008FE59DE09A8B898B47C08091530D909119
:1054D000540DA091550DB091560D20915B0D30915A
:1054E0005C0D40915D0D50915E0DBC01CD010E949F
:1054F00095798823CCF484E194E0825E9E4FFC0190
:1055000080819181FC0180819181A281B38180930E
:10551000530D9093540DA093550DB093560D87E500
:105520009DE09A8B898B18C084E194E0825E9E4F47
:10553000FC0180819181FC0180819181A281B381F4
:1055400080935B0D90935C0DA0935D0DB0935E0D09
:105550008FE59DE09A8B898B8091C30C9091C40C50
:10556000A091C50CB091C60C29893A89F9018083B4
:105570009183A283B38384E194E0855E9E4FFC0116
:1055800080819181019781F48091D30C9091D40C0A
:10559000A091D50CB091D60C8093630D9093640DBF
:1055A000A093650DB093660D18A21F8E84E194E060
:1055B0008D5F9E4FFC0180819181A281B381BC01EE
:1055C000CD010E94357A6B017C0184E194E0895F12
:1055D0009E4FFC0180819181A281B381BC01CD01EC
:1055E0000E94357ADC01CB0120E030E040E85FE446
:1055F000BC01CD010E94987BDC01CB019C01AD0177
:10560000C701B6010E943179DC01CB0120E030E016
:10561000A901BC01CD010E943179DC01CB01BC01A3
:10562000CD010E94097ADC01CB0189A39AA3ABA327
:10563000BCA389A19AA1ABA1BCA1AC01BD0180E032
:1056400090E00E94870C98A38F8F84E194E0855EA0
:105650009E4FFC0180819181019709F051C01EA2EB
:105660001DA284E194E0815F9E4FFC0180819181C5
:10567000A281B381BC01CD010E94357A6B017C010E
:1056800084E194E08D5E9E4FFC0180819181A28136
:10569000B381BC01CD010E94357ADC01CB0120E051
:1056A00030E040E85FE4BC01CD010E94987BDC0162
:1056B000CB019C01AD01C701B6010E943179DC012B
:1056C000CB0120E030E0A901BC01CD010E9431797D
:1056D000DC01CB01BC01CD010E94097ADC01CB01C8
:1056E0008FA398A7A9A7BAA78FA198A5A9A5BAA57E
:1056F000AC01BD0181E090E00E94870C9EA38DA3C8
:1057000084E194E0855E9E4FFC0180819181019748
:1057100009F082C084E194E004960E94801624E19E
:1057200034E0C9018D5F9E4FFC0180819181A2818F
:10573000B3810196A11DB11DA9014D5F5E4FFA0114
:1057400080839183A283B383C9018D5F9E4FFC0147
:1057500080819181A281B381892B8A2B8B2BA1F42B
:1057600024E134E0C901895F9E4FFC018081918171
:10577000A281B3810196A11DB11D295F3E4FF901A0
:1057800080839183A283B38384E194E024E134E0B5
:10579000225E3E4FF90120813181FC01808991898F
:1057A000A289B389F90180839183A283B38324E121
:1057B00034E0C901815F9E4FFC0180819181A2810B
:1057C000B3810196A11DB11D215F3E4FF901808378
:1057D0009183A283B38384E194E0815F9E4FFC01B7
:1057E00080819181A281B381892B8A2B8B2BA1F49B
:1057F00024E134E0C9018D5E9E4FFC0180819181DE
:10580000A281B3810196A11DB11D2D5E3E4FF9010C
:1058100080839183A283B3830000C35BDF4F0FB605
:10582000F894DEBF0FBECDBFDF91CF911F910F91D6
:10583000FF90EF90DF90CF90BF90AF909F908F90B0
:105840007F906F905F904F903F902F900895CF93EF
:10585000DF931F921F92CDB7DEB784E194E08457A7
:105860009F4FFC01808191819A8389838091680296
:1058700090916902A0916A02B0916B022091670C2D
:105880003091680C4091690C50916A0CBC01CD01BB
:105890000E94987BDC01CB0129813A81F901808348
:1058A0009183A283B38389819A81FC018081918154
:1058B000A281B3812091CF0C3091D00C4091D10CBA
:1058C0005091D20CBC01CD010E943179DC01CB0199
:1058D00029813A81F90180839183A283B3838091E6
:1058E000BF0C9091C00CA091C10CB091C20C298149
:1058F0003A81F90184839583A683B7838091A70CAD
:105900009091A80CA091A90CB091AA0C29813A8180
:10591000F90180879187A287B3878091BB0C909112
:10592000BC0CA091BD0CB091BE0C29813A81F9014B
:1059300084879587A687B7878091B30C9091B40C24
:10594000A091B50CB091B60C29813A81F901808BF8
:10595000918BA28BB38B00000F900F90DF91CF91B2
:105960000895EF92FF920F931F93CF93DF93CDB7DC
:10597000DEB72E970FB6F894DEBF0FBECDBF84E022
:1059800090E055D684E194E048E251E060E070E0B8
:105990000E94109724E134E084E194E0255E3E4FBC
:1059A000FC013783268324E134E084E194E0225E25
:1059B0003E4F805C9F4FFC013183208324E134E023
:1059C00084E194E0255F3E4FFC01358B248B24E17C
:1059D00034E084E194E024573F4FFC0137AF26AF19
:1059E00024E134E084E194E02A573F4F8C5B9F4FE1
:1059F000FC013183208324E134E084E194E02550EC
:105A00003F4F8E5B9F4FFC013183208324E134E0C4
:105A100084E194E023503F4F8A5B9F4FFC01318328
:105A2000208324E134E084E194E028573F4F885BF1
:105A30009F4FFC013183208324E134E084E194E032
:105A400026573F4F865B9F4FFC013183208324E123
:105A500034E084E194E086599F4FFC013183208338
:105A600084E194E024E134E0FC013583248384E183
:105A700094E0FC018681978121E030E0FC013183D4
:105A8000208324E134E084E194E02D563F4F8D5192
:105A90009F4FFC013183208324E134E084E194E0D2
:105AA00029553F4F8B519F4FFC013183208324E1C7
:105AB00034E084E194E025543F4F89519F4FFC012D
:105AC0003183208324E134E084E194E021533F4F8B
:105AD00087519F4FFC013183208384E194E08A57F2
